{
  "_format": "hh-sol-artifact-1",
  "contractName": "CrowdfundFactory",
  "sourceName": "contracts/funding/CrowdfundFactory.sol",
  "abi": [
    {
      "inputs": [],
      "stateMutability": "nonpayable",
      "type": "constructor"
    },
    {
      "anonymous": false,
      "inputs": [
        {
          "indexed": true,
          "internalType": "address",
          "name": "previousOwner",
          "type": "address"
        },
        {
          "indexed": true,
          "internalType": "address",
          "name": "newOwner",
          "type": "address"
        }
      ],
      "name": "OwnershipTransferred",
      "type": "event"
    },
    {
      "inputs": [],
      "name": "acceptOwnership",
      "outputs": [],
      "stateMutability": "nonpayable",
      "type": "function"
    },
    {
      "inputs": [],
      "name": "cancelOwnershipTransfer",
      "outputs": [],
      "stateMutability": "nonpayable",
      "type": "function"
    },
    {
      "inputs": [
        {
          "internalType": "string",
          "name": "name",
          "type": "string"
        },
        {
          "internalType": "string",
          "name": "symbol",
          "type": "string"
        },
        {
          "internalType": "address payable",
          "name": "operator_",
          "type": "address"
        },
        {
          "internalType": "address payable",
          "name": "fundingRecipient_",
          "type": "address"
        },
        {
          "internalType": "address",
          "name": "cfa_",
          "type": "address"
        },
        {
          "internalType": "uint256",
          "name": "fundingCap_",
          "type": "uint256"
        },
        {
          "internalType": "uint256",
          "name": "operatorPercent_",
          "type": "uint256"
        },
        {
          "internalType": "uint16",
          "name": "tokenScale_",
          "type": "uint16"
        }
      ],
      "name": "createCrowdfund",
      "outputs": [
        {
          "internalType": "address",
          "name": "",
          "type": "address"
        }
      ],
      "stateMutability": "nonpayable",
      "type": "function"
    },
    {
      "inputs": [],
      "name": "isNextOwner",
      "outputs": [
        {
          "internalType": "bool",
          "name": "",
          "type": "bool"
        }
      ],
      "stateMutability": "view",
      "type": "function"
    },
    {
      "inputs": [],
      "name": "isOwner",
      "outputs": [
        {
          "internalType": "bool",
          "name": "",
          "type": "bool"
        }
      ],
      "stateMutability": "view",
      "type": "function"
    },
    {
      "inputs": [],
      "name": "owner",
      "outputs": [
        {
          "internalType": "address",
          "name": "",
          "type": "address"
        }
      ],
      "stateMutability": "view",
      "type": "function"
    },
    {
      "inputs": [],
      "name": "renounceOwnership",
      "outputs": [],
      "stateMutability": "nonpayable",
      "type": "function"
    },
    {
      "inputs": [
        {
          "internalType": "address",
          "name": "nextOwner_",
          "type": "address"
        }
      ],
      "name": "transferOwnership",
      "outputs": [],
      "stateMutability": "nonpayable",
      "type": "function"
    }
  ],
  "bytecode": "0x608060405234801561001057600080fd5b50600080546001600160a01b0319163390811780835560405191926001600160a01b0391909116917f8be0079c531659141344cd1fd0a4f28419497f9722a3daafe3b4186f6b6457e0908290a350600080546001600160a01b0319163317905561216c8061007f6000396000f3fe608060405234801561001057600080fd5b50600436106100885760003560e01c80638da5cb5b1161005b5780638da5cb5b146102225780638f32d59b1461022a578063ed459df214610246578063f2fde38b1461024e57610088565b806323452b9c1461008d5780634ed87ef714610097578063715018a61461021257806379ba50971461021a575b600080fd5b610095610274565b005b6101f660048036036101008110156100ae57600080fd5b8101906020810181356401000000008111156100c957600080fd5b8201836020820111156100db57600080fd5b803590602001918460018302840111640100000000831117156100fd57600080fd5b91908080601f016020809104026020016040519081016040528093929190818152602001838380828437600092019190915250929594936020810193503591505064010000000081111561015057600080fd5b82018360208201111561016257600080fd5b8035906020019184600183028401116401000000008311171561018457600080fd5b91908080601f016020809104026020016040519081016040528093929190818152602001838380828437600092019190915250929550505081356001600160a01b03908116935060208301358116926040810135909116915060608101359060808101359060a0013561ffff166102da565b604080516001600160a01b039092168252519081900360200190f35b61009561048c565b61009561051c565b6101f66105b3565b6102326105c2565b604080519115158252519081900360200190f35b6102326105d3565b6100956004803603602081101561026457600080fd5b50356001600160a01b03166105e4565b61027c6105c2565b6102c8576040805162461bcd60e51b815260206004820152601860248201527731b0b63632b91034b9903737ba103a34329037bbb732b91760411b604482015290519081900360640190fd5b600180546001600160a01b0319169055565b60006102e46105c2565b610330576040805162461bcd60e51b815260206004820152601860248201527731b0b63632b91034b9903737ba103a34329037bbb732b91760411b604482015290519081900360640190fd5b60008989898989898989604051610346906106b5565b808060200180602001896001600160a01b03168152602001886001600160a01b03168152602001876001600160a01b031681526020018681526020018581526020018461ffff16815260200183810383528b818151815260200191508051906020019080838360005b838110156103c75781810151838201526020016103af565b50505050905090810190601f1680156103f45780820380516001836020036101000a031916815260200191505b5083810382528a5181528a516020918201918c019080838360005b8381101561042757818101518382015260200161040f565b50505050905090810190601f1680156104545780820380516001836020036101000a031916815260200191505b509a5050505050505050505050604051809103906000f08015801561047d573d6000803e3d6000fd5b509a9950505050505050505050565b6104946105c2565b6104e0576040805162461bcd60e51b815260206004820152601860248201527731b0b63632b91034b9903737ba103a34329037bbb732b91760411b604482015290519081900360640190fd5b600080546001600160a01b031916815560405181907f8be0079c531659141344cd1fd0a4f28419497f9722a3daafe3b4186f6b6457e0908290a3565b6105246105d3565b6105605760405162461bcd60e51b815260040180806020018281038252602c8152602001806200210b602c913960400191505060405180910390fd5b600180546001600160a01b03199081169091556000805433921682178082556040516001600160a01b03909116917f8be0079c531659141344cd1fd0a4f28419497f9722a3daafe3b4186f6b6457e091a3565b6000546001600160a01b031681565b6000546001600160a01b0316331490565b6001546001600160a01b0316331490565b6105ec6105c2565b610638576040805162461bcd60e51b815260206004820152601860248201527731b0b63632b91034b9903737ba103a34329037bbb732b91760411b604482015290519081900360640190fd5b6001600160a01b038116610693576040805162461bcd60e51b815260206004820152601f60248201527f4e657874206f776e657220697320746865207a65726f20616464726573732e00604482015290519081900360640190fd5b600180546001600160a01b0319166001600160a01b0392909216919091179055565b611a4780620006c48339019056fe60806040523480156200001157600080fd5b5060405162001a4738038062001a4783398181016040526101008110156200003857600080fd5b81019080805160405193929190846401000000008211156200005957600080fd5b9083019060208201858111156200006f57600080fd5b82516401000000008111828201881017156200008a57600080fd5b82525081516020918201929091019080838360005b83811015620000b95781810151838201526020016200009f565b50505050905090810190601f168015620000e75780820380516001836020036101000a031916815260200191505b50604052602001805160405193929190846401000000008211156200010b57600080fd5b9083019060208201858111156200012157600080fd5b82516401000000008111828201881017156200013c57600080fd5b82525081516020918201929091019080838360005b838110156200016b57818101518382015260200162000151565b50505050905090810190601f168015620001995780820380516001836020036101000a031916815260200191505b5060408181526020830151908301516060840151608085015160a086015160c090960151600080546001600160a01b0319166001600160a01b0380881691909117808355969a5094985092969195919490938b938b938b9384931691907f8be0079c531659141344cd1fd0a4f28419497f9722a3daafe3b4186f6b6457e0908290a3505081516200023290600690602085019062000310565b5080516200024890600790602084019062000310565b505060088054600980546001600160a01b0319166001600160a01b038a811691909117909155600c8054610100600160a81b0319166101008a8416810291909117909155600a889055600b879055601260ff19909316929092176301000000600160b81b0319166301000000918b16919091021762ffff00191661ffff8516909102179055506040805130815290517f824f53696f8638dcae0d1b6d275e7931ac9146f39d320ba087747890d27f2bcd916020908290030190a15050505050505050620003bc565b828054600181600116156101000203166002900490600052602060002090601f01602090048101928262000348576000855562000393565b82601f106200036357805160ff191683800117855562000393565b8280016001018555821562000393579182015b828111156200039357825182559160200191906001019062000376565b50620003a1929150620003a5565b5090565b5b80821115620003a15760008155600101620003a6565b61167b80620003cc6000396000f3fe6080604052600436106101ee5760003560e01c8063715018a61161010d578063a9059cbb116100a0578063dd62ed3e1161006f578063dd62ed3e14610648578063e3b2594f14610683578063e4c0aaf414610698578063ed459df2146106cb578063f2fde38b146106e0576101ee565b8063a9059cbb146105bf578063b60d4288146105f8578063c7af335214610600578063da046b6714610615576101ee565b80638f32d59b116100dc5780638f32d59b1461053257806395d89b41146105475780639744b8dc1461055c578063a457c2d714610586576101ee565b8063715018a6146104de57806379ba5097146104f35780637b4044a0146105085780638da5cb5b1461051d576101ee565b806323b872dd11610185578063395093511161015457806339509351146104485780633ccfd60b14610481578063570ca7351461049657806370a08231146104ab576101ee565b806323b872dd14610399578063313ce567146103dc57806331a3a50614610407578063342c02b11461041c576101ee565b806318160ddd116101c157806318160ddd146103105780631bb534ba14610337578063200d2ed21461034c57806323452b9c14610382576101ee565b806306fdde03146101f3578063095ea7b31461027d5780630c340a24146102ca5780631054df8c146102fb575b600080fd5b3480156101ff57600080fd5b50610208610713565b6040805160208082528351818301528351919283929083019185019080838360005b8381101561024257818101518382015260200161022a565b50505050905090810190601f16801561026f5780820380516001836020036101000a031916815260200191505b509250505060405180910390f35b34801561028957600080fd5b506102b6600480360360408110156102a057600080fd5b506001600160a01b0381351690602001356107a9565b604080519115158252519081900360200190f35b3480156102d657600080fd5b506102df6107c6565b604080516001600160a01b039092168252519081900360200190f35b34801561030757600080fd5b506102df6107d5565b34801561031c57600080fd5b506103256107e9565b60408051918252519081900360200190f35b34801561034357600080fd5b506102df6107ef565b34801561035857600080fd5b506103616107fe565b6040518082600181111561037157fe5b815260200191505060405180910390f35b34801561038e57600080fd5b50610397610807565b005b3480156103a557600080fd5b506102b6600480360360608110156103bc57600080fd5b506001600160a01b0381358116916020810135909116906040013561086d565b3480156103e857600080fd5b506103f16108f4565b6040805160ff9092168252519081900360200190f35b34801561041357600080fd5b506103976108fd565b34801561042857600080fd5b50610431610a11565b6040805161ffff9092168252519081900360200190f35b34801561045457600080fd5b506102b66004803603604081101561046b57600080fd5b506001600160a01b038135169060200135610a20565b34801561048d57600080fd5b50610397610a6e565b3480156104a257600080fd5b506102df610aa7565b3480156104b757600080fd5b50610325600480360360208110156104ce57600080fd5b50356001600160a01b0316610abd565b3480156104ea57600080fd5b50610397610ad8565b3480156104ff57600080fd5b50610397610b68565b34801561051457600080fd5b50610325610bfe565b34801561052957600080fd5b506102df610c04565b34801561053e57600080fd5b506102b6610c13565b34801561055357600080fd5b50610208610c24565b34801561056857600080fd5b506103256004803603602081101561057f57600080fd5b5035610c85565b34801561059257600080fd5b506102b6600480360360408110156105a957600080fd5b506001600160a01b038135169060200135610c95565b3480156105cb57600080fd5b506102b6600480360360408110156105e257600080fd5b506001600160a01b038135169060200135610cfd565b610397610d11565b34801561060c57600080fd5b506102b6610d25565b34801561062157600080fd5b506103976004803603602081101561063857600080fd5b50356001600160a01b0316610d36565b34801561065457600080fd5b506103256004803603604081101561066b57600080fd5b506001600160a01b0381358116916020013516610d76565b34801561068f57600080fd5b50610325610da1565b3480156106a457600080fd5b50610397600480360360208110156106bb57600080fd5b50356001600160a01b0316610da7565b3480156106d757600080fd5b506102b6610e30565b3480156106ec57600080fd5b506103976004803603602081101561070357600080fd5b50356001600160a01b0316610e41565b60068054604080516020601f600260001961010060018816150201909516949094049384018190048102820181019092528281526060939092909183018282801561079f5780601f106107745761010080835404028352916020019161079f565b820191906000526020600020905b81548152906001019060200180831161078257829003601f168201915b5050505050905090565b60006107bd6107b6610f12565b8484610f16565b50600192915050565b6002546001600160a01b031681565b600c5461010090046001600160a01b031681565b60055490565b6009546001600160a01b031681565b600c5460ff1681565b61080f610c13565b61085b576040805162461bcd60e51b815260206004820152601860248201527731b0b63632b91034b9903737ba103a34329037bbb732b91760411b604482015290519081900360640190fd5b600180546001600160a01b0319169055565b600061087a848484611002565b6108ea84610886610f12565b6108e58560405180606001604052806028815260200161158a602891396001600160a01b038a166000908152600460205260408120906108c4610f12565b6001600160a01b03168152602081019190915260400160002054919061115f565b610f16565b5060019392505050565b60085460ff1690565b600854630100000090046001600160a01b0316331461091b57600080fd5b6000600c5460ff16600181111561092e57fe5b14610980576040805162461bcd60e51b815260206004820152601f60248201527f43726f776466756e643a2046756e64696e67206d757374206265206f70656e00604482015290519081900360640190fd5b600c805460ff19166001179055600b5460009060640361099e6107e9565b600b5402816109a957fe5b0490506109cb600860039054906101000a90046001600160a01b0316826111f6565b604080514781526020810183905281517f352ce94da8e3109dc06c05ed84e8a0aaf9ce2c4329dfd10ad1190cf620048972929181900390910190a1610a0e610a6e565b50565b600854610100900461ffff1681565b60006107bd610a2d610f12565b846108e58560046000610a3e610f12565b6001600160a01b03908116825260208083019390935260409182016000908120918c1681529252902054906112e8565b6009546040516001600160a01b03909116904780156108fc02916000818181858888f19350505050158015610a0e573d6000803e3d6000fd5b600854630100000090046001600160a01b031681565b6001600160a01b031660009081526003602052604090205490565b610ae0610c13565b610b2c576040805162461bcd60e51b815260206004820152601860248201527731b0b63632b91034b9903737ba103a34329037bbb732b91760411b604482015290519081900360640190fd5b600080546001600160a01b031916815560405181907f8be0079c531659141344cd1fd0a4f28419497f9722a3daafe3b4186f6b6457e0908290a3565b610b70610e30565b610bab5760405162461bcd60e51b815260040180806020018281038252602c815260200180611516602c913960400191505060405180910390fd5b600180546001600160a01b03199081169091556000805433921682178082556040516001600160a01b03909116917f8be0079c531659141344cd1fd0a4f28419497f9722a3daafe3b4186f6b6457e091a3565b600b5481565b6000546001600160a01b031681565b6000546001600160a01b0316331490565b60078054604080516020601f600260001961010060018816150201909516949094049384018190048102820181019092528281526060939092909183018282801561079f5780601f106107745761010080835404028352916020019161079f565b600854610100900461ffff160290565b60006107bd610ca2610f12565b846108e5856040518060600160405280602581526020016116216025913960046000610ccc610f12565b6001600160a01b03908116825260208083019390935260409182016000908120918d1681529252902054919061115f565b60006107bd610d0a610f12565b8484611002565b670de0b6b3a76400003404610a0e81611349565b6002546001600160a01b0316331490565b600854630100000090046001600160a01b03163314610d5457600080fd5b600980546001600160a01b0319166001600160a01b0392909216919091179055565b6001600160a01b03918216600090815260046020908152604080832093909416825291909152205490565b600a5481565b610daf610c13565b80610dbd5750610dbd610d25565b610e0e576040805162461bcd60e51b815260206004820152601860248201527f63616c6c6572206973206e6f7420676f7665726e616e63650000000000000000604482015290519081900360640190fd5b600280546001600160a01b0319166001600160a01b0392909216919091179055565b6001546001600160a01b0316331490565b610e49610c13565b610e95576040805162461bcd60e51b815260206004820152601860248201527731b0b63632b91034b9903737ba103a34329037bbb732b91760411b604482015290519081900360640190fd5b6001600160a01b038116610ef0576040805162461bcd60e51b815260206004820152601f60248201527f4e657874206f776e657220697320746865207a65726f20616464726573732e00604482015290519081900360640190fd5b600180546001600160a01b0319166001600160a01b0392909216919091179055565b3390565b6001600160a01b038316610f5b5760405162461bcd60e51b81526004018080602001828103825260248152602001806115fd6024913960400191505060405180910390fd5b6001600160a01b038216610fa05760405162461bcd60e51b81526004018080602001828103825260228152602001806115426022913960400191505060405180910390fd5b6001600160a01b03808416600081815260046020908152604080832094871680845294825291829020859055815185815291517f8c5be1e5ebec7d5bd14f71427d1e84f3dd0314c0f7b2291e5b200ac8c7c3b9259281900390910190a3505050565b6001600160a01b0383166110475760405162461bcd60e51b81526004018080602001828103825260258152602001806115d86025913960400191505060405180910390fd5b6001600160a01b03821661108c5760405162461bcd60e51b81526004018080602001828103825260238152602001806114f36023913960400191505060405180910390fd5b6110978383836114ed565b6110d481604051806060016040528060268152602001611564602691396001600160a01b038616600090815260036020526040902054919061115f565b6001600160a01b03808516600090815260036020526040808220939093559084168152205461110390826112e8565b6001600160a01b0380841660008181526003602090815260409182902094909455805185815290519193928716927fddf252ad1be2c89b69c2b068fc378daa952ba7f163c4a11628f55a4df523b3ef92918290030190a3505050565b600081848411156111ee5760405162461bcd60e51b81526004018080602001828103825283818151815260200191508051906020019080838360005b838110156111b357818101518382015260200161119b565b50505050905090810190601f1680156111e05780820380516001836020036101000a031916815260200191505b509250505060405180910390fd5b505050900390565b6001600160a01b038216611251576040805162461bcd60e51b815260206004820152601f60248201527f45524332303a206d696e7420746f20746865207a65726f206164647265737300604482015290519081900360640190fd5b61125d600083836114ed565b60055461126a90826112e8565b6005556001600160a01b03821660009081526003602052604090205461129090826112e8565b6001600160a01b03831660008181526003602090815260408083209490945583518581529351929391927fddf252ad1be2c89b69c2b068fc378daa952ba7f163c4a11628f55a4df523b3ef9281900390910190a35050565b600082820183811015611342576040805162461bcd60e51b815260206004820152601b60248201527f536166654d6174683a206164646974696f6e206f766572666c6f770000000000604482015290519081900360640190fd5b9392505050565b6000600c5460ff16600181111561135c57fe5b146113ae576040805162461bcd60e51b815260206004820152601f60248201527f43726f776466756e643a2046756e64696e67206d757374206265206f70656e00604482015290519081900360640190fd5b600a5433904711611414576113cb816113c684610c85565b6111f6565b604080516001600160a01b03831681526020810184905281517f4d154d4aae216bed6d0926db77c00df2b57c6b5ba4eee05775de20facede3a7b929181900390910190a16114e9565b600a54478390039081106114595760405162461bcd60e51b81526004018080602001828103825260268152602001806115b26026913960400191505060405180910390fd5b600a5481900361146c836113c683610c85565b604080516001600160a01b03851681526020810183905281517f4d154d4aae216bed6d0926db77c00df2b57c6b5ba4eee05775de20facede3a7b929181900390910190a16040516001600160a01b038416904780156108fc02916000818181858888f193505050501580156114e5573d6000803e3d6000fd5b5050505b5050565b50505056fe45524332303a207472616e7366657220746f20746865207a65726f206164647265737363757272656e74206f776e6572206d757374207365742063616c6c6572206173206e657874206f776e65722e45524332303a20617070726f766520746f20746865207a65726f206164647265737345524332303a207472616e7366657220616d6f756e7420657863656564732062616c616e636545524332303a207472616e7366657220616d6f756e74206578636565647320616c6c6f77616e636543726f776466756e643a2046756e64696e672063617020616c7265616479207265616368656445524332303a207472616e736665722066726f6d20746865207a65726f206164647265737345524332303a20617070726f76652066726f6d20746865207a65726f206164647265737345524332303a2064656372656173656420616c6c6f77616e63652062656c6f77207a65726fa2646970667358221220371d87c364da55b4682b98bf64026275b595fb05bb881d092f29a18c9d80ce0a64736f6c6343000704003363757272656e74206f776e6572206d757374207365742063616c6c6572206173206e657874206f776e65722ea26469706673582212207981e52429014b7cce0aa7fdd9931975e3038c596ecb8a9a5cc985a9c0f87deb64736f6c63430007040033",
  "linkReferences": {},
  "deployedLinkReferences": {}
}