{
  "_format": "hh-sol-artifact-1",
  "contractName": "CrowdfundFactory",
  "sourceName": "contracts/funding/CrowdfundFactory.sol",
  "abi": [
    {
      "inputs": [],
      "stateMutability": "nonpayable",
      "type": "constructor"
    },
    {
      "anonymous": false,
      "inputs": [
        {
          "indexed": true,
          "internalType": "address",
          "name": "previousOwner",
          "type": "address"
        },
        {
          "indexed": true,
          "internalType": "address",
          "name": "newOwner",
          "type": "address"
        }
      ],
      "name": "OwnershipTransferred",
      "type": "event"
    },
    {
      "inputs": [],
      "name": "acceptOwnership",
      "outputs": [],
      "stateMutability": "nonpayable",
      "type": "function"
    },
    {
      "inputs": [],
      "name": "cancelOwnershipTransfer",
      "outputs": [],
      "stateMutability": "nonpayable",
      "type": "function"
    },
    {
      "inputs": [
        {
          "internalType": "string",
          "name": "name",
          "type": "string"
        },
        {
          "internalType": "string",
          "name": "symbol",
          "type": "string"
        },
        {
          "internalType": "address payable",
          "name": "operator_",
          "type": "address"
        },
        {
          "internalType": "address payable",
          "name": "fundingRecipient_",
          "type": "address"
        },
        {
          "internalType": "address",
          "name": "cfa_",
          "type": "address"
        },
        {
          "internalType": "uint256",
          "name": "fundingCap_",
          "type": "uint256"
        },
        {
          "internalType": "uint256",
          "name": "operatorPercent_",
          "type": "uint256"
        },
        {
          "internalType": "uint16",
          "name": "tokenScale_",
          "type": "uint16"
        },
        {
          "internalType": "uint256",
          "name": "fixedPercent_",
          "type": "uint256"
        }
      ],
      "name": "createCrowdfund",
      "outputs": [
        {
          "internalType": "address",
          "name": "",
          "type": "address"
        }
      ],
      "stateMutability": "nonpayable",
      "type": "function"
    },
    {
      "inputs": [],
      "name": "isNextOwner",
      "outputs": [
        {
          "internalType": "bool",
          "name": "",
          "type": "bool"
        }
      ],
      "stateMutability": "view",
      "type": "function"
    },
    {
      "inputs": [],
      "name": "isOwner",
      "outputs": [
        {
          "internalType": "bool",
          "name": "",
          "type": "bool"
        }
      ],
      "stateMutability": "view",
      "type": "function"
    },
    {
      "inputs": [],
      "name": "owner",
      "outputs": [
        {
          "internalType": "address",
          "name": "",
          "type": "address"
        }
      ],
      "stateMutability": "view",
      "type": "function"
    },
    {
      "inputs": [],
      "name": "renounceOwnership",
      "outputs": [],
      "stateMutability": "nonpayable",
      "type": "function"
    },
    {
      "inputs": [
        {
          "internalType": "address",
          "name": "nextOwner_",
          "type": "address"
        }
      ],
      "name": "transferOwnership",
      "outputs": [],
      "stateMutability": "nonpayable",
      "type": "function"
    }
  ],
  "bytecode": "0x608060405234801561001057600080fd5b50600080546001600160a01b0319163390811780835560405191926001600160a01b0391909116917f8be0079c531659141344cd1fd0a4f28419497f9722a3daafe3b4186f6b6457e0908290a350600080546001600160a01b031916331790556122cd8061007f6000396000f3fe60806040523480156200001157600080fd5b5060043610620000945760003560e01c80638da5cb5b11620000635780638da5cb5b14620002425780638f32d59b146200024c578063ed459df2146200026a578063f2fde38b14620002745762000094565b806323452b9c14620000995780634795c84f14620000a5578063715018a6146200022e57806379ba50971462000238575b600080fd5b620000a36200029d565b005b620002126004803603610120811015620000be57600080fd5b810190602081018135640100000000811115620000da57600080fd5b820183602082011115620000ed57600080fd5b803590602001918460018302840111640100000000831117156200011057600080fd5b91908080601f01602080910402602001604051908101604052809392919081815260200183838082843760009201919091525092959493602081019350359150506401000000008111156200016457600080fd5b8201836020820111156200017757600080fd5b803590602001918460018302840111640100000000831117156200019a57600080fd5b91908080601f016020809104026020016040519081016040528093929190818152602001838380828437600092019190915250929550506001600160a01b038335811694506020840135811693604081013590911692506060810135915060808101359061ffff60a0820135169060c0013562000306565b604080516001600160a01b039092168252519081900360200190f35b620000a3620004cd565b620000a362000560565b62000212620005fa565b6200025662000609565b604080519115158252519081900360200190f35b620002566200061a565b620000a3600480360360208110156200028c57600080fd5b50356001600160a01b03166200062b565b620002a762000609565b620002f4576040805162461bcd60e51b815260206004820152601860248201527731b0b63632b91034b9903737ba103a34329037bbb732b91760411b604482015290519081900360640190fd5b600180546001600160a01b0319169055565b60006200031262000609565b6200035f576040805162461bcd60e51b815260206004820152601860248201527731b0b63632b91034b9903737ba103a34329037bbb732b91760411b604482015290519081900360640190fd5b60008a8a8a8a8a8a8a8a8a604051620003789062000700565b8080602001806020018a6001600160a01b03168152602001896001600160a01b03168152602001886001600160a01b031681526020018781526020018681526020018561ffff16815260200184815260200183810383528c818151815260200191508051906020019080838360005b8381101562000401578181015183820152602001620003e7565b50505050905090810190601f1680156200042f5780820380516001836020036101000a031916815260200191505b5083810382528b5181528b516020918201918d019080838360005b83811015620004645781810151838201526020016200044a565b50505050905090810190601f168015620004925780820380516001836020036101000a031916815260200191505b509b505050505050505050505050604051809103906000f080158015620004bd573d6000803e3d6000fd5b509b9a5050505050505050505050565b620004d762000609565b62000524576040805162461bcd60e51b815260206004820152601860248201527731b0b63632b91034b9903737ba103a34329037bbb732b91760411b604482015290519081900360640190fd5b600080546001600160a01b031916815560405181907f8be0079c531659141344cd1fd0a4f28419497f9722a3daafe3b4186f6b6457e0908290a3565b6200056a6200061a565b620005a75760405162461bcd60e51b815260040180806020018281038252602c8152602001806200226c602c913960400191505060405180910390fd5b600180546001600160a01b03199081169091556000805433921682178082556040516001600160a01b03909116917f8be0079c531659141344cd1fd0a4f28419497f9722a3daafe3b4186f6b6457e091a3565b6000546001600160a01b031681565b6000546001600160a01b0316331490565b6001546001600160a01b0316331490565b6200063562000609565b62000682576040805162461bcd60e51b815260206004820152601860248201527731b0b63632b91034b9903737ba103a34329037bbb732b91760411b604482015290519081900360640190fd5b6001600160a01b038116620006de576040805162461bcd60e51b815260206004820152601f60248201527f4e657874206f776e657220697320746865207a65726f20616464726573732e00604482015290519081900360640190fd5b600180546001600160a01b0319166001600160a01b0392909216919091179055565b611b5d806200070f8339019056fe60806040523480156200001157600080fd5b5060405162001b5d38038062001b5d83398181016040526101208110156200003857600080fd5b81019080805160405193929190846401000000008211156200005957600080fd5b9083019060208201858111156200006f57600080fd5b82516401000000008111828201881017156200008a57600080fd5b82525081516020918201929091019080838360005b83811015620000b95781810151838201526020016200009f565b50505050905090810190601f168015620000e75780820380516001836020036101000a031916815260200191505b50604052602001805160405193929190846401000000008211156200010b57600080fd5b9083019060208201858111156200012157600080fd5b82516401000000008111828201881017156200013c57600080fd5b82525081516020918201929091019080838360005b838110156200016b57818101518382015260200162000151565b50505050905090810190601f168015620001995780820380516001836020036101000a031916815260200191505b5060408181526020830151908301516060840151608085015160a086015160c087015160e090970151600080546001600160a01b0319166001600160a01b0380891691909117808355979b50959950939792969195929490938c938c938c938493921691907f8be0079c531659141344cd1fd0a4f28419497f9722a3daafe3b4186f6b6457e0908290a3505081516200023a90600690602085019062000359565b5080516200025090600790602084019062000359565b505060088054600980546001600160a01b03199081166001600160a01b038c811691909117909255600f805482168b8416179055600a899055600b889055601260ff19909316929092176301000000600160b81b0319166301000000918c16919091021762ffff00191661010061ffff87160217909155600c839055600d8054610100600160a81b0319167459b670e9fa9d0a427751af201d676719a970857b00179055600e8054731f65b7b9b3adb4354ff76fd0582bb6b0d046a41c9216919091179055506040805130815290517f824f53696f8638dcae0d1b6d275e7931ac9146f39d320ba087747890d27f2bcd916020908290030190a150505050505050505062000405565b828054600181600116156101000203166002900490600052602060002090601f016020900481019282620003915760008555620003dc565b82601f10620003ac57805160ff1916838001178555620003dc565b82800160010185558215620003dc579182015b82811115620003dc578251825591602001919060010190620003bf565b50620003ea929150620003ee565b5090565b5b80821115620003ea5760008155600101620003ef565b61174880620004156000396000f3fe6080604052600436106101f95760003560e01c806379ba50971161010d578063a9059cbb116100a0578063dd62ed3e1161006f578063dd62ed3e14610668578063e3b2594f146106a3578063e4c0aaf4146106b8578063ed459df2146106eb578063f2fde38b14610700576101f9565b8063a9059cbb146105df578063b60d428814610618578063c7af335214610620578063da046b6714610635576101f9565b80638f32d59b116100dc5780638f32d59b1461055257806395d89b41146105675780639744b8dc1461057c578063a457c2d7146105a6576101f9565b806379ba5097146104fe5780637b4044a01461051357806381afa6fb146105285780638da5cb5b1461053d576101f9565b806323b872dd11610190578063395093511161015f57806339509351146104535780633ccfd60b1461048c578063570ca735146104a157806370a08231146104b6578063715018a6146104e9576101f9565b806323b872dd146103a4578063313ce567146103e757806331a3a50614610412578063342c02b114610427576101f9565b806318160ddd116101cc57806318160ddd1461031b5780631bb534ba14610342578063200d2ed21461035757806323452b9c1461038d576101f9565b806306fdde03146101fe578063095ea7b3146102885780630c340a24146102d55780631054df8c14610306575b600080fd5b34801561020a57600080fd5b50610213610733565b6040805160208082528351818301528351919283929083019185019080838360005b8381101561024d578181015183820152602001610235565b50505050905090810190601f16801561027a5780820380516001836020036101000a031916815260200191505b509250505060405180910390f35b34801561029457600080fd5b506102c1600480360360408110156102ab57600080fd5b506001600160a01b0381351690602001356107c9565b604080519115158252519081900360200190f35b3480156102e157600080fd5b506102ea6107e6565b604080516001600160a01b039092168252519081900360200190f35b34801561031257600080fd5b506102ea6107f5565b34801561032757600080fd5b50610330610804565b60408051918252519081900360200190f35b34801561034e57600080fd5b506102ea61080a565b34801561036357600080fd5b5061036c610819565b6040518082600181111561037c57fe5b815260200191505060405180910390f35b34801561039957600080fd5b506103a2610822565b005b3480156103b057600080fd5b506102c1600480360360608110156103c757600080fd5b506001600160a01b03813581169160208101359091169060400135610888565b3480156103f357600080fd5b506103fc61090f565b6040805160ff9092168252519081900360200190f35b34801561041e57600080fd5b506103a2610918565b34801561043357600080fd5b5061043c610a2c565b6040805161ffff9092168252519081900360200190f35b34801561045f57600080fd5b506102c16004803603604081101561047657600080fd5b506001600160a01b038135169060200135610a3b565b34801561049857600080fd5b506103a2610a89565b3480156104ad57600080fd5b506102ea610b6e565b3480156104c257600080fd5b50610330600480360360208110156104d957600080fd5b50356001600160a01b0316610b84565b3480156104f557600080fd5b506103a2610b9f565b34801561050a57600080fd5b506103a2610c2f565b34801561051f57600080fd5b50610330610cc5565b34801561053457600080fd5b50610330610ccb565b34801561054957600080fd5b506102ea610cd1565b34801561055e57600080fd5b506102c1610ce0565b34801561057357600080fd5b50610213610cf1565b34801561058857600080fd5b506103306004803603602081101561059f57600080fd5b5035610d52565b3480156105b257600080fd5b506102c1600480360360408110156105c957600080fd5b506001600160a01b038135169060200135610d62565b3480156105eb57600080fd5b506102c16004803603604081101561060257600080fd5b506001600160a01b038135169060200135610dca565b6103a2610dde565b34801561062c57600080fd5b506102c1610df2565b34801561064157600080fd5b506103a26004803603602081101561065857600080fd5b50356001600160a01b0316610e03565b34801561067457600080fd5b506103306004803603604081101561068b57600080fd5b506001600160a01b0381358116916020013516610e43565b3480156106af57600080fd5b50610330610e6e565b3480156106c457600080fd5b506103a2600480360360208110156106db57600080fd5b50356001600160a01b0316610e74565b3480156106f757600080fd5b506102c1610efd565b34801561070c57600080fd5b506103a26004803603602081101561072357600080fd5b50356001600160a01b0316610f0e565b60068054604080516020601f60026000196101006001881615020190951694909404938401819004810282018101909252828152606093909290918301828280156107bf5780601f10610794576101008083540402835291602001916107bf565b820191906000526020600020905b8154815290600101906020018083116107a257829003601f168201915b5050505050905090565b60006107dd6107d6610fdf565b8484610fe3565b50600192915050565b6002546001600160a01b031681565b600f546001600160a01b031681565b60055490565b6009546001600160a01b031681565b600d5460ff1681565b61082a610ce0565b610876576040805162461bcd60e51b815260206004820152601860248201527731b0b63632b91034b9903737ba103a34329037bbb732b91760411b604482015290519081900360640190fd5b600180546001600160a01b0319169055565b60006108958484846110cf565b610905846108a1610fdf565b61090085604051806060016040528060288152602001611657602891396001600160a01b038a166000908152600460205260408120906108df610fdf565b6001600160a01b03168152602081019190915260400160002054919061122c565b610fe3565b5060019392505050565b60085460ff1690565b600854630100000090046001600160a01b0316331461093657600080fd5b6000600d5460ff16600181111561094957fe5b1461099b576040805162461bcd60e51b815260206004820152601f60248201527f43726f776466756e643a2046756e64696e67206d757374206265206f70656e00604482015290519081900360640190fd5b600d805460ff19166001179055600b546000906064036109b9610804565b600b5402816109c457fe5b0490506109e6600860039054906101000a90046001600160a01b0316826112c3565b604080514781526020810183905281517f352ce94da8e3109dc06c05ed84e8a0aaf9ce2c4329dfd10ad1190cf620048972929181900390910190a1610a29610a89565b50565b600854610100900461ffff1681565b60006107dd610a48610fdf565b846109008560046000610a59610fdf565b6001600160a01b03908116825260208083019390935260409182016000908120918c1681529252902054906113b5565b6000600c546064034781610a9957fe5b60095460405192909104925047839003916001600160a01b039091169083156108fc029084906000818181858888f19350505050158015610ade573d6000803e3d6000fd5b50600d54600e546040805163095ea7b360e01b81526001600160a01b0392831660048201526024810185905290516101009093049091169163095ea7b3916044808201926020929091908290030181600087803b158015610b3e57600080fd5b505af1158015610b52573d6000803e3d6000fd5b505050506040513d6020811015610b6857600080fd5b50505050565b600854630100000090046001600160a01b031681565b6001600160a01b031660009081526003602052604090205490565b610ba7610ce0565b610bf3576040805162461bcd60e51b815260206004820152601860248201527731b0b63632b91034b9903737ba103a34329037bbb732b91760411b604482015290519081900360640190fd5b600080546001600160a01b031916815560405181907f8be0079c531659141344cd1fd0a4f28419497f9722a3daafe3b4186f6b6457e0908290a3565b610c37610efd565b610c725760405162461bcd60e51b815260040180806020018281038252602c8152602001806115e3602c913960400191505060405180910390fd5b600180546001600160a01b03199081169091556000805433921682178082556040516001600160a01b03909116917f8be0079c531659141344cd1fd0a4f28419497f9722a3daafe3b4186f6b6457e091a3565b600b5481565b600c5481565b6000546001600160a01b031681565b6000546001600160a01b0316331490565b60078054604080516020601f60026000196101006001881615020190951694909404938401819004810282018101909252828152606093909290918301828280156107bf5780601f10610794576101008083540402835291602001916107bf565b600854610100900461ffff160290565b60006107dd610d6f610fdf565b84610900856040518060600160405280602581526020016116ee6025913960046000610d99610fdf565b6001600160a01b03908116825260208083019390935260409182016000908120918d1681529252902054919061122c565b60006107dd610dd7610fdf565b84846110cf565b670de0b6b3a76400003404610a2981611416565b6002546001600160a01b0316331490565b600854630100000090046001600160a01b03163314610e2157600080fd5b600980546001600160a01b0319166001600160a01b0392909216919091179055565b6001600160a01b03918216600090815260046020908152604080832093909416825291909152205490565b600a5481565b610e7c610ce0565b80610e8a5750610e8a610df2565b610edb576040805162461bcd60e51b815260206004820152601860248201527f63616c6c6572206973206e6f7420676f7665726e616e63650000000000000000604482015290519081900360640190fd5b600280546001600160a01b0319166001600160a01b0392909216919091179055565b6001546001600160a01b0316331490565b610f16610ce0565b610f62576040805162461bcd60e51b815260206004820152601860248201527731b0b63632b91034b9903737ba103a34329037bbb732b91760411b604482015290519081900360640190fd5b6001600160a01b038116610fbd576040805162461bcd60e51b815260206004820152601f60248201527f4e657874206f776e657220697320746865207a65726f20616464726573732e00604482015290519081900360640190fd5b600180546001600160a01b0319166001600160a01b0392909216919091179055565b3390565b6001600160a01b0383166110285760405162461bcd60e51b81526004018080602001828103825260248152602001806116ca6024913960400191505060405180910390fd5b6001600160a01b03821661106d5760405162461bcd60e51b815260040180806020018281038252602281526020018061160f6022913960400191505060405180910390fd5b6001600160a01b03808416600081815260046020908152604080832094871680845294825291829020859055815185815291517f8c5be1e5ebec7d5bd14f71427d1e84f3dd0314c0f7b2291e5b200ac8c7c3b9259281900390910190a3505050565b6001600160a01b0383166111145760405162461bcd60e51b81526004018080602001828103825260258152602001806116a56025913960400191505060405180910390fd5b6001600160a01b0382166111595760405162461bcd60e51b81526004018080602001828103825260238152602001806115c06023913960400191505060405180910390fd5b6111648383836115ba565b6111a181604051806060016040528060268152602001611631602691396001600160a01b038616600090815260036020526040902054919061122c565b6001600160a01b0380851660009081526003602052604080822093909355908416815220546111d090826113b5565b6001600160a01b0380841660008181526003602090815260409182902094909455805185815290519193928716927fddf252ad1be2c89b69c2b068fc378daa952ba7f163c4a11628f55a4df523b3ef92918290030190a3505050565b600081848411156112bb5760405162461bcd60e51b81526004018080602001828103825283818151815260200191508051906020019080838360005b83811015611280578181015183820152602001611268565b50505050905090810190601f1680156112ad5780820380516001836020036101000a031916815260200191505b509250505060405180910390fd5b505050900390565b6001600160a01b03821661131e576040805162461bcd60e51b815260206004820152601f60248201527f45524332303a206d696e7420746f20746865207a65726f206164647265737300604482015290519081900360640190fd5b61132a600083836115ba565b60055461133790826113b5565b6005556001600160a01b03821660009081526003602052604090205461135d90826113b5565b6001600160a01b03831660008181526003602090815260408083209490945583518581529351929391927fddf252ad1be2c89b69c2b068fc378daa952ba7f163c4a11628f55a4df523b3ef9281900390910190a35050565b60008282018381101561140f576040805162461bcd60e51b815260206004820152601b60248201527f536166654d6174683a206164646974696f6e206f766572666c6f770000000000604482015290519081900360640190fd5b9392505050565b6000600d5460ff16600181111561142957fe5b1461147b576040805162461bcd60e51b815260206004820152601f60248201527f43726f776466756e643a2046756e64696e67206d757374206265206f70656e00604482015290519081900360640190fd5b600a54339047116114e1576114988161149384610d52565b6112c3565b604080516001600160a01b03831681526020810184905281517f4d154d4aae216bed6d0926db77c00df2b57c6b5ba4eee05775de20facede3a7b929181900390910190a16115b6565b600a54478390039081106115265760405162461bcd60e51b815260040180806020018281038252602681526020018061167f6026913960400191505060405180910390fd5b600a548190036115398361149383610d52565b604080516001600160a01b03851681526020810183905281517f4d154d4aae216bed6d0926db77c00df2b57c6b5ba4eee05775de20facede3a7b929181900390910190a16040516001600160a01b038416904780156108fc02916000818181858888f193505050501580156115b2573d6000803e3d6000fd5b5050505b5050565b50505056fe45524332303a207472616e7366657220746f20746865207a65726f206164647265737363757272656e74206f776e6572206d757374207365742063616c6c6572206173206e657874206f776e65722e45524332303a20617070726f766520746f20746865207a65726f206164647265737345524332303a207472616e7366657220616d6f756e7420657863656564732062616c616e636545524332303a207472616e7366657220616d6f756e74206578636565647320616c6c6f77616e636543726f776466756e643a2046756e64696e672063617020616c7265616479207265616368656445524332303a207472616e736665722066726f6d20746865207a65726f206164647265737345524332303a20617070726f76652066726f6d20746865207a65726f206164647265737345524332303a2064656372656173656420616c6c6f77616e63652062656c6f77207a65726fa26469706673582212208b1727ca30586d128fe6058a54ae01788f4f378aa174368a1c10be4a888918c864736f6c6343000704003363757272656e74206f776e6572206d757374207365742063616c6c6572206173206e657874206f776e65722ea26469706673582212202ed6adcb66da14d9de2f26e75ed258fc141b5db65927ba91481dc2be963c0ca764736f6c63430007040033",
  "linkReferences": {},
  "deployedLinkReferences": {}
}