{
  "_format": "hh-sol-artifact-1",
  "contractName": "CrowdfundFactory",
  "sourceName": "contracts/funding/CrowdfundFactory.sol",
  "abi": [
    {
      "inputs": [],
      "stateMutability": "nonpayable",
      "type": "constructor"
    },
    {
      "anonymous": false,
      "inputs": [
        {
          "indexed": true,
          "internalType": "address",
          "name": "previousOwner",
          "type": "address"
        },
        {
          "indexed": true,
          "internalType": "address",
          "name": "newOwner",
          "type": "address"
        }
      ],
      "name": "OwnershipTransferred",
      "type": "event"
    },
    {
      "inputs": [],
      "name": "acceptOwnership",
      "outputs": [],
      "stateMutability": "nonpayable",
      "type": "function"
    },
    {
      "inputs": [],
      "name": "cancelOwnershipTransfer",
      "outputs": [],
      "stateMutability": "nonpayable",
      "type": "function"
    },
    {
      "inputs": [
        {
          "internalType": "string",
          "name": "name",
          "type": "string"
        },
        {
          "internalType": "string",
          "name": "symbol",
          "type": "string"
        },
        {
          "internalType": "address payable",
          "name": "operator_",
          "type": "address"
        },
        {
          "internalType": "address payable",
          "name": "fundingRecipient_",
          "type": "address"
        },
        {
          "internalType": "address",
          "name": "cfa_",
          "type": "address"
        },
        {
          "internalType": "uint256",
          "name": "fundingCap_",
          "type": "uint256"
        },
        {
          "internalType": "uint256",
          "name": "operatorPercent_",
          "type": "uint256"
        },
        {
          "internalType": "uint16",
          "name": "tokenScale_",
          "type": "uint16"
        },
        {
          "internalType": "uint256",
          "name": "fixedPercent_",
          "type": "uint256"
        }
      ],
      "name": "createCrowdfund",
      "outputs": [
        {
          "internalType": "address",
          "name": "",
          "type": "address"
        }
      ],
      "stateMutability": "nonpayable",
      "type": "function"
    },
    {
      "inputs": [],
      "name": "isNextOwner",
      "outputs": [
        {
          "internalType": "bool",
          "name": "",
          "type": "bool"
        }
      ],
      "stateMutability": "view",
      "type": "function"
    },
    {
      "inputs": [],
      "name": "isOwner",
      "outputs": [
        {
          "internalType": "bool",
          "name": "",
          "type": "bool"
        }
      ],
      "stateMutability": "view",
      "type": "function"
    },
    {
      "inputs": [],
      "name": "owner",
      "outputs": [
        {
          "internalType": "address",
          "name": "",
          "type": "address"
        }
      ],
      "stateMutability": "view",
      "type": "function"
    },
    {
      "inputs": [],
      "name": "renounceOwnership",
      "outputs": [],
      "stateMutability": "nonpayable",
      "type": "function"
    },
    {
      "inputs": [
        {
          "internalType": "address",
          "name": "nextOwner_",
          "type": "address"
        }
      ],
      "name": "transferOwnership",
      "outputs": [],
      "stateMutability": "nonpayable",
      "type": "function"
    }
  ],
  "bytecode": "0x608060405234801561001057600080fd5b50600080546001600160a01b0319163390811780835560405191926001600160a01b0391909116917f8be0079c531659141344cd1fd0a4f28419497f9722a3daafe3b4186f6b6457e0908290a350600080546001600160a01b031916331790556121ae8061007f6000396000f3fe608060405234801561001057600080fd5b50600436106100885760003560e01c80638da5cb5b1161005b5780638da5cb5b146102275780638f32d59b1461022f578063ed459df21461024b578063f2fde38b1461025357610088565b806323452b9c1461008d5780634795c84f14610097578063715018a61461021757806379ba50971461021f575b600080fd5b610095610279565b005b6101fb60048036036101208110156100ae57600080fd5b8101906020810181356401000000008111156100c957600080fd5b8201836020820111156100db57600080fd5b803590602001918460018302840111640100000000831117156100fd57600080fd5b91908080601f016020809104026020016040519081016040528093929190818152602001838380828437600092019190915250929594936020810193503591505064010000000081111561015057600080fd5b82018360208201111561016257600080fd5b8035906020019184600183028401116401000000008311171561018457600080fd5b91908080601f016020809104026020016040519081016040528093929190818152602001838380828437600092019190915250929550506001600160a01b038335811694506020840135811693604081013590911692506060810135915060808101359061ffff60a0820135169060c001356102df565b604080516001600160a01b039092168252519081900360200190f35b61009561049a565b61009561052a565b6101fb6105c1565b6102376105d0565b604080519115158252519081900360200190f35b6102376105e1565b6100956004803603602081101561026957600080fd5b50356001600160a01b03166105f2565b6102816105d0565b6102cd576040805162461bcd60e51b815260206004820152601860248201527731b0b63632b91034b9903737ba103a34329037bbb732b91760411b604482015290519081900360640190fd5b600180546001600160a01b0319169055565b60006102e96105d0565b610335576040805162461bcd60e51b815260206004820152601860248201527731b0b63632b91034b9903737ba103a34329037bbb732b91760411b604482015290519081900360640190fd5b60008a8a8a8a8a8a8a8a8a60405161034c906106c3565b8080602001806020018a6001600160a01b03168152602001896001600160a01b03168152602001886001600160a01b031681526020018781526020018681526020018561ffff16815260200184815260200183810383528c818151815260200191508051906020019080838360005b838110156103d35781810151838201526020016103bb565b50505050905090810190601f1680156104005780820380516001836020036101000a031916815260200191505b5083810382528b5181528b516020918201918d019080838360005b8381101561043357818101518382015260200161041b565b50505050905090810190601f1680156104605780820380516001836020036101000a031916815260200191505b509b505050505050505050505050604051809103906000f08015801561048a573d6000803e3d6000fd5b509b9a5050505050505050505050565b6104a26105d0565b6104ee576040805162461bcd60e51b815260206004820152601860248201527731b0b63632b91034b9903737ba103a34329037bbb732b91760411b604482015290519081900360640190fd5b600080546001600160a01b031916815560405181907f8be0079c531659141344cd1fd0a4f28419497f9722a3daafe3b4186f6b6457e0908290a3565b6105326105e1565b61056e5760405162461bcd60e51b815260040180806020018281038252602c8152602001806200214d602c913960400191505060405180910390fd5b600180546001600160a01b03199081169091556000805433921682178082556040516001600160a01b03909116917f8be0079c531659141344cd1fd0a4f28419497f9722a3daafe3b4186f6b6457e091a3565b6000546001600160a01b031681565b6000546001600160a01b0316331490565b6001546001600160a01b0316331490565b6105fa6105d0565b610646576040805162461bcd60e51b815260206004820152601860248201527731b0b63632b91034b9903737ba103a34329037bbb732b91760411b604482015290519081900360640190fd5b6001600160a01b0381166106a1576040805162461bcd60e51b815260206004820152601f60248201527f4e657874206f776e657220697320746865207a65726f20616464726573732e00604482015290519081900360640190fd5b600180546001600160a01b0319166001600160a01b0392909216919091179055565b611a7b80620006d28339019056fe60806040523480156200001157600080fd5b5060405162001a7b38038062001a7b83398181016040526101208110156200003857600080fd5b81019080805160405193929190846401000000008211156200005957600080fd5b9083019060208201858111156200006f57600080fd5b82516401000000008111828201881017156200008a57600080fd5b82525081516020918201929091019080838360005b83811015620000b95781810151838201526020016200009f565b50505050905090810190601f168015620000e75780820380516001836020036101000a031916815260200191505b50604052602001805160405193929190846401000000008211156200010b57600080fd5b9083019060208201858111156200012157600080fd5b82516401000000008111828201881017156200013c57600080fd5b82525081516020918201929091019080838360005b838110156200016b57818101518382015260200162000151565b50505050905090810190601f168015620001995780820380516001836020036101000a031916815260200191505b5060408181526020830151908301516060840151608085015160a086015160c087015160e090970151600080546001600160a01b0319166001600160a01b0380891691909117808355979b50959950939792969195929490938c938c938c938493921691907f8be0079c531659141344cd1fd0a4f28419497f9722a3daafe3b4186f6b6457e0908290a3505081516200023a9060069060208501906200031e565b508051620002509060079060208401906200031e565b505060088054600980546001600160a01b0319166001600160a01b038b811691909117909155600d8054610100600160a81b0319166101008b8416810291909117909155600a899055600b889055601260ff19909316929092176301000000600160b81b0319166301000000918c16919091021762ffff00191661ffff861690910217905550600c8190556040805130815290517f824f53696f8638dcae0d1b6d275e7931ac9146f39d320ba087747890d27f2bcd916020908290030190a1505050505050505050620003ca565b828054600181600116156101000203166002900490600052602060002090601f016020900481019282620003565760008555620003a1565b82601f106200037157805160ff1916838001178555620003a1565b82800160010185558215620003a1579182015b82811115620003a157825182559160200191906001019062000384565b50620003af929150620003b3565b5090565b5b80821115620003af5760008155600101620003b4565b6116a180620003da6000396000f3fe6080604052600436106101f95760003560e01c806379ba50971161010d578063a9059cbb116100a0578063dd62ed3e1161006f578063dd62ed3e14610668578063e3b2594f146106a3578063e4c0aaf4146106b8578063ed459df2146106eb578063f2fde38b14610700576101f9565b8063a9059cbb146105df578063b60d428814610618578063c7af335214610620578063da046b6714610635576101f9565b80638f32d59b116100dc5780638f32d59b1461055257806395d89b41146105675780639744b8dc1461057c578063a457c2d7146105a6576101f9565b806379ba5097146104fe5780637b4044a01461051357806381afa6fb146105285780638da5cb5b1461053d576101f9565b806323b872dd11610190578063395093511161015f57806339509351146104535780633ccfd60b1461048c578063570ca735146104a157806370a08231146104b6578063715018a6146104e9576101f9565b806323b872dd146103a4578063313ce567146103e757806331a3a50614610412578063342c02b114610427576101f9565b806318160ddd116101cc57806318160ddd1461031b5780631bb534ba14610342578063200d2ed21461035757806323452b9c1461038d576101f9565b806306fdde03146101fe578063095ea7b3146102885780630c340a24146102d55780631054df8c14610306575b600080fd5b34801561020a57600080fd5b50610213610733565b6040805160208082528351818301528351919283929083019185019080838360005b8381101561024d578181015183820152602001610235565b50505050905090810190601f16801561027a5780820380516001836020036101000a031916815260200191505b509250505060405180910390f35b34801561029457600080fd5b506102c1600480360360408110156102ab57600080fd5b506001600160a01b0381351690602001356107c9565b604080519115158252519081900360200190f35b3480156102e157600080fd5b506102ea6107e6565b604080516001600160a01b039092168252519081900360200190f35b34801561031257600080fd5b506102ea6107f5565b34801561032757600080fd5b50610330610809565b60408051918252519081900360200190f35b34801561034e57600080fd5b506102ea61080f565b34801561036357600080fd5b5061036c61081e565b6040518082600181111561037c57fe5b815260200191505060405180910390f35b34801561039957600080fd5b506103a2610827565b005b3480156103b057600080fd5b506102c1600480360360608110156103c757600080fd5b506001600160a01b0381358116916020810135909116906040013561088d565b3480156103f357600080fd5b506103fc610914565b6040805160ff9092168252519081900360200190f35b34801561041e57600080fd5b506103a261091d565b34801561043357600080fd5b5061043c610a31565b6040805161ffff9092168252519081900360200190f35b34801561045f57600080fd5b506102c16004803603604081101561047657600080fd5b506001600160a01b038135169060200135610a40565b34801561049857600080fd5b506103a2610a8e565b3480156104ad57600080fd5b506102ea610ac7565b3480156104c257600080fd5b50610330600480360360208110156104d957600080fd5b50356001600160a01b0316610add565b3480156104f557600080fd5b506103a2610af8565b34801561050a57600080fd5b506103a2610b88565b34801561051f57600080fd5b50610330610c1e565b34801561053457600080fd5b50610330610c24565b34801561054957600080fd5b506102ea610c2a565b34801561055e57600080fd5b506102c1610c39565b34801561057357600080fd5b50610213610c4a565b34801561058857600080fd5b506103306004803603602081101561059f57600080fd5b5035610cab565b3480156105b257600080fd5b506102c1600480360360408110156105c957600080fd5b506001600160a01b038135169060200135610cbb565b3480156105eb57600080fd5b506102c16004803603604081101561060257600080fd5b506001600160a01b038135169060200135610d23565b6103a2610d37565b34801561062c57600080fd5b506102c1610d4b565b34801561064157600080fd5b506103a26004803603602081101561065857600080fd5b50356001600160a01b0316610d5c565b34801561067457600080fd5b506103306004803603604081101561068b57600080fd5b506001600160a01b0381358116916020013516610d9c565b3480156106af57600080fd5b50610330610dc7565b3480156106c457600080fd5b506103a2600480360360208110156106db57600080fd5b50356001600160a01b0316610dcd565b3480156106f757600080fd5b506102c1610e56565b34801561070c57600080fd5b506103a26004803603602081101561072357600080fd5b50356001600160a01b0316610e67565b60068054604080516020601f60026000196101006001881615020190951694909404938401819004810282018101909252828152606093909290918301828280156107bf5780601f10610794576101008083540402835291602001916107bf565b820191906000526020600020905b8154815290600101906020018083116107a257829003601f168201915b5050505050905090565b60006107dd6107d6610f38565b8484610f3c565b50600192915050565b6002546001600160a01b031681565b600d5461010090046001600160a01b031681565b60055490565b6009546001600160a01b031681565b600d5460ff1681565b61082f610c39565b61087b576040805162461bcd60e51b815260206004820152601860248201527731b0b63632b91034b9903737ba103a34329037bbb732b91760411b604482015290519081900360640190fd5b600180546001600160a01b0319169055565b600061089a848484611028565b61090a846108a6610f38565b610905856040518060600160405280602881526020016115b0602891396001600160a01b038a166000908152600460205260408120906108e4610f38565b6001600160a01b031681526020810191909152604001600020549190611185565b610f3c565b5060019392505050565b60085460ff1690565b600854630100000090046001600160a01b0316331461093b57600080fd5b6000600d5460ff16600181111561094e57fe5b146109a0576040805162461bcd60e51b815260206004820152601f60248201527f43726f776466756e643a2046756e64696e67206d757374206265206f70656e00604482015290519081900360640190fd5b600d805460ff19166001179055600b546000906064036109be610809565b600b5402816109c957fe5b0490506109eb600860039054906101000a90046001600160a01b03168261121c565b604080514781526020810183905281517f352ce94da8e3109dc06c05ed84e8a0aaf9ce2c4329dfd10ad1190cf620048972929181900390910190a1610a2e610a8e565b50565b600854610100900461ffff1681565b60006107dd610a4d610f38565b846109058560046000610a5e610f38565b6001600160a01b03908116825260208083019390935260409182016000908120918c16815292529020549061130e565b6009546040516001600160a01b03909116904780156108fc02916000818181858888f19350505050158015610a2e573d6000803e3d6000fd5b600854630100000090046001600160a01b031681565b6001600160a01b031660009081526003602052604090205490565b610b00610c39565b610b4c576040805162461bcd60e51b815260206004820152601860248201527731b0b63632b91034b9903737ba103a34329037bbb732b91760411b604482015290519081900360640190fd5b600080546001600160a01b031916815560405181907f8be0079c531659141344cd1fd0a4f28419497f9722a3daafe3b4186f6b6457e0908290a3565b610b90610e56565b610bcb5760405162461bcd60e51b815260040180806020018281038252602c81526020018061153c602c913960400191505060405180910390fd5b600180546001600160a01b03199081169091556000805433921682178082556040516001600160a01b03909116917f8be0079c531659141344cd1fd0a4f28419497f9722a3daafe3b4186f6b6457e091a3565b600b5481565b600c5481565b6000546001600160a01b031681565b6000546001600160a01b0316331490565b60078054604080516020601f60026000196101006001881615020190951694909404938401819004810282018101909252828152606093909290918301828280156107bf5780601f10610794576101008083540402835291602001916107bf565b600854610100900461ffff160290565b60006107dd610cc8610f38565b84610905856040518060600160405280602581526020016116476025913960046000610cf2610f38565b6001600160a01b03908116825260208083019390935260409182016000908120918d16815292529020549190611185565b60006107dd610d30610f38565b8484611028565b670de0b6b3a76400003404610a2e8161136f565b6002546001600160a01b0316331490565b600854630100000090046001600160a01b03163314610d7a57600080fd5b600980546001600160a01b0319166001600160a01b0392909216919091179055565b6001600160a01b03918216600090815260046020908152604080832093909416825291909152205490565b600a5481565b610dd5610c39565b80610de35750610de3610d4b565b610e34576040805162461bcd60e51b815260206004820152601860248201527f63616c6c6572206973206e6f7420676f7665726e616e63650000000000000000604482015290519081900360640190fd5b600280546001600160a01b0319166001600160a01b0392909216919091179055565b6001546001600160a01b0316331490565b610e6f610c39565b610ebb576040805162461bcd60e51b815260206004820152601860248201527731b0b63632b91034b9903737ba103a34329037bbb732b91760411b604482015290519081900360640190fd5b6001600160a01b038116610f16576040805162461bcd60e51b815260206004820152601f60248201527f4e657874206f776e657220697320746865207a65726f20616464726573732e00604482015290519081900360640190fd5b600180546001600160a01b0319166001600160a01b0392909216919091179055565b3390565b6001600160a01b038316610f815760405162461bcd60e51b81526004018080602001828103825260248152602001806116236024913960400191505060405180910390fd5b6001600160a01b038216610fc65760405162461bcd60e51b81526004018080602001828103825260228152602001806115686022913960400191505060405180910390fd5b6001600160a01b03808416600081815260046020908152604080832094871680845294825291829020859055815185815291517f8c5be1e5ebec7d5bd14f71427d1e84f3dd0314c0f7b2291e5b200ac8c7c3b9259281900390910190a3505050565b6001600160a01b03831661106d5760405162461bcd60e51b81526004018080602001828103825260258152602001806115fe6025913960400191505060405180910390fd5b6001600160a01b0382166110b25760405162461bcd60e51b81526004018080602001828103825260238152602001806115196023913960400191505060405180910390fd5b6110bd838383611513565b6110fa8160405180606001604052806026815260200161158a602691396001600160a01b0386166000908152600360205260409020549190611185565b6001600160a01b038085166000908152600360205260408082209390935590841681522054611129908261130e565b6001600160a01b0380841660008181526003602090815260409182902094909455805185815290519193928716927fddf252ad1be2c89b69c2b068fc378daa952ba7f163c4a11628f55a4df523b3ef92918290030190a3505050565b600081848411156112145760405162461bcd60e51b81526004018080602001828103825283818151815260200191508051906020019080838360005b838110156111d95781810151838201526020016111c1565b50505050905090810190601f1680156112065780820380516001836020036101000a031916815260200191505b509250505060405180910390fd5b505050900390565b6001600160a01b038216611277576040805162461bcd60e51b815260206004820152601f60248201527f45524332303a206d696e7420746f20746865207a65726f206164647265737300604482015290519081900360640190fd5b61128360008383611513565b600554611290908261130e565b6005556001600160a01b0382166000908152600360205260409020546112b6908261130e565b6001600160a01b03831660008181526003602090815260408083209490945583518581529351929391927fddf252ad1be2c89b69c2b068fc378daa952ba7f163c4a11628f55a4df523b3ef9281900390910190a35050565b600082820183811015611368576040805162461bcd60e51b815260206004820152601b60248201527f536166654d6174683a206164646974696f6e206f766572666c6f770000000000604482015290519081900360640190fd5b9392505050565b6000600d5460ff16600181111561138257fe5b146113d4576040805162461bcd60e51b815260206004820152601f60248201527f43726f776466756e643a2046756e64696e67206d757374206265206f70656e00604482015290519081900360640190fd5b600a543390471161143a576113f1816113ec84610cab565b61121c565b604080516001600160a01b03831681526020810184905281517f4d154d4aae216bed6d0926db77c00df2b57c6b5ba4eee05775de20facede3a7b929181900390910190a161150f565b600a544783900390811061147f5760405162461bcd60e51b81526004018080602001828103825260268152602001806115d86026913960400191505060405180910390fd5b600a54819003611492836113ec83610cab565b604080516001600160a01b03851681526020810183905281517f4d154d4aae216bed6d0926db77c00df2b57c6b5ba4eee05775de20facede3a7b929181900390910190a16040516001600160a01b038416904780156108fc02916000818181858888f1935050505015801561150b573d6000803e3d6000fd5b5050505b5050565b50505056fe45524332303a207472616e7366657220746f20746865207a65726f206164647265737363757272656e74206f776e6572206d757374207365742063616c6c6572206173206e657874206f776e65722e45524332303a20617070726f766520746f20746865207a65726f206164647265737345524332303a207472616e7366657220616d6f756e7420657863656564732062616c616e636545524332303a207472616e7366657220616d6f756e74206578636565647320616c6c6f77616e636543726f776466756e643a2046756e64696e672063617020616c7265616479207265616368656445524332303a207472616e736665722066726f6d20746865207a65726f206164647265737345524332303a20617070726f76652066726f6d20746865207a65726f206164647265737345524332303a2064656372656173656420616c6c6f77616e63652062656c6f77207a65726fa2646970667358221220691ad7f432b801529caf2e3c80d6a2f95f86a31e089228a9d03cb76db2adc73f64736f6c6343000704003363757272656e74206f776e6572206d757374207365742063616c6c6572206173206e657874206f776e65722ea26469706673582212200e49df6ee51a89a563455bc25702d3045a775669159c89683adfbddfca768c0e64736f6c63430007040033",
  "linkReferences": {},
  "deployedLinkReferences": {}
}