{
  "_format": "hh-sol-artifact-1",
  "contractName": "Ownable",
  "sourceName": "contracts/lib/Ownable.sol",
  "abi": [
    {
      "inputs": [
        {
          "internalType": "address",
          "name": "owner_",
          "type": "address"
        }
      ],
      "stateMutability": "nonpayable",
      "type": "constructor"
    },
    {
      "anonymous": false,
      "inputs": [
        {
          "indexed": true,
          "internalType": "address",
          "name": "previousOwner",
          "type": "address"
        },
        {
          "indexed": true,
          "internalType": "address",
          "name": "newOwner",
          "type": "address"
        }
      ],
      "name": "OwnershipTransferred",
      "type": "event"
    },
    {
      "inputs": [],
      "name": "acceptOwnership",
      "outputs": [],
      "stateMutability": "nonpayable",
      "type": "function"
    },
    {
      "inputs": [],
      "name": "cancelOwnershipTransfer",
      "outputs": [],
      "stateMutability": "nonpayable",
      "type": "function"
    },
    {
      "inputs": [],
      "name": "isNextOwner",
      "outputs": [
        {
          "internalType": "bool",
          "name": "",
          "type": "bool"
        }
      ],
      "stateMutability": "view",
      "type": "function"
    },
    {
      "inputs": [],
      "name": "isOwner",
      "outputs": [
        {
          "internalType": "bool",
          "name": "",
          "type": "bool"
        }
      ],
      "stateMutability": "view",
      "type": "function"
    },
    {
      "inputs": [],
      "name": "owner",
      "outputs": [
        {
          "internalType": "address",
          "name": "",
          "type": "address"
        }
      ],
      "stateMutability": "view",
      "type": "function"
    },
    {
      "inputs": [],
      "name": "renounceOwnership",
      "outputs": [],
      "stateMutability": "nonpayable",
      "type": "function"
    },
    {
      "inputs": [
        {
          "internalType": "address",
          "name": "nextOwner_",
          "type": "address"
        }
      ],
      "name": "transferOwnership",
      "outputs": [],
      "stateMutability": "nonpayable",
      "type": "function"
    }
  ],
  "bytecode": "0x608060405234801561001057600080fd5b5060405161048b38038061048b8339818101604052602081101561003357600080fd5b5051600080546001600160a01b0319166001600160a01b0380841691909117808355604051911691907f8be0079c531659141344cd1fd0a4f28419497f9722a3daafe3b4186f6b6457e0908290a3506103fa806100916000396000f3fe608060405234801561001057600080fd5b506004361061007d5760003560e01c80638da5cb5b1161005b5780638da5cb5b1461009c5780638f32d59b146100c0578063ed459df2146100dc578063f2fde38b146100e45761007d565b806323452b9c14610082578063715018a61461008c57806379ba509714610094575b600080fd5b61008a61010a565b005b61008a610170565b61008a610200565b6100a4610296565b604080516001600160a01b039092168252519081900360200190f35b6100c86102a5565b604080519115158252519081900360200190f35b6100c86102b6565b61008a600480360360208110156100fa57600080fd5b50356001600160a01b03166102c7565b6101126102a5565b61015e576040805162461bcd60e51b815260206004820152601860248201527731b0b63632b91034b9903737ba103a34329037bbb732b91760411b604482015290519081900360640190fd5b600180546001600160a01b0319169055565b6101786102a5565b6101c4576040805162461bcd60e51b815260206004820152601860248201527731b0b63632b91034b9903737ba103a34329037bbb732b91760411b604482015290519081900360640190fd5b600080546001600160a01b031916815560405181907f8be0079c531659141344cd1fd0a4f28419497f9722a3daafe3b4186f6b6457e0908290a3565b6102086102b6565b6102435760405162461bcd60e51b815260040180806020018281038252602c815260200180610399602c913960400191505060405180910390fd5b600180546001600160a01b03199081169091556000805433921682178082556040516001600160a01b03909116917f8be0079c531659141344cd1fd0a4f28419497f9722a3daafe3b4186f6b6457e091a3565b6000546001600160a01b031681565b6000546001600160a01b0316331490565b6001546001600160a01b0316331490565b6102cf6102a5565b61031b576040805162461bcd60e51b815260206004820152601860248201527731b0b63632b91034b9903737ba103a34329037bbb732b91760411b604482015290519081900360640190fd5b6001600160a01b038116610376576040805162461bcd60e51b815260206004820152601f60248201527f4e657874206f776e657220697320746865207a65726f20616464726573732e00604482015290519081900360640190fd5b600180546001600160a01b0319166001600160a01b039290921691909117905556fe63757272656e74206f776e6572206d757374207365742063616c6c6572206173206e657874206f776e65722ea2646970667358221220a54e003c04e92ae5dd466ee25794bb78cb41b06372315df23ccfc1e3050fc41664736f6c63430007040033",
  "linkReferences": {},
  "deployedLinkReferences": {}
}