{
  "_format": "hh-sol-artifact-1",
  "contractName": "CFACrowdfund",
  "sourceName": "contracts/funding/CFACrowdfund.sol",
  "abi": [
    {
      "inputs": [
        {
          "internalType": "contract ISuperfluid",
          "name": "host",
          "type": "address"
        }
      ],
      "stateMutability": "nonpayable",
      "type": "constructor"
    },
    {
      "inputs": [],
      "name": "cfaV1",
      "outputs": [
        {
          "internalType": "contract ISuperfluid",
          "name": "host",
          "type": "address"
        },
        {
          "internalType": "contract IConstantFlowAgreementV1",
          "name": "cfa",
          "type": "address"
        }
      ],
      "stateMutability": "view",
      "type": "function"
    },
    {
      "inputs": [
        {
          "internalType": "contract ISuperfluidToken",
          "name": "token",
          "type": "address"
        },
        {
          "internalType": "address",
          "name": "receiver",
          "type": "address"
        },
        {
          "internalType": "int96",
          "name": "flowRate",
          "type": "int96"
        }
      ],
      "name": "createFlow",
      "outputs": [],
      "stateMutability": "nonpayable",
      "type": "function"
    },
    {
      "inputs": [
        {
          "internalType": "contract ISuperfluidToken",
          "name": "token",
          "type": "address"
        },
        {
          "internalType": "address",
          "name": "receiver",
          "type": "address"
        }
      ],
      "name": "deleteFlow",
      "outputs": [],
      "stateMutability": "nonpayable",
      "type": "function"
    }
  ],
  "bytecode": "0x608060405234801561001057600080fd5b5060405161054a38038061054a8339818101604052602081101561003357600080fd5b50516040805180820182526001600160a01b0383168082528251635b69006f60e11b81527fa9214cc96615e0085d3bb077758db69497dc2dce3b2b1e97bc93c3d18d83efd360048201529251919260208481019363b6d200de926024808201939291829003018186803b1580156100a957600080fd5b505afa1580156100bd573d6000803e3d6000fd5b505050506040513d60208110156100d357600080fd5b50516001600160a01b039081169091528151600080549183166001600160a01b0319928316179055602092909201516001805491909216921691909117905550610428806101226000396000f3fe608060405234801561001057600080fd5b50600436106100415760003560e01c806304f9c8c514610046578063d3112b2e14610081578063ec7cb701146100b8575b600080fd5b61007f6004803603606081101561005c57600080fd5b506001600160a01b03813581169160208101359091169060400135600b0b6100e6565b005b6100896100f8565b60405180836001600160a01b03168152602001826001600160a01b031681526020019250505060405180910390f35b61007f600480360360408110156100ce57600080fd5b506001600160a01b038135811691602001351661010e565b6100f3600083858461011f565b505050565b6000546001546001600160a01b03918216911682565b61011b6000308385610208565b5050565b835460018501546040805160008152602081019091526001600160a01b03928316926339255d5b92169063317e182f60e11b90610165908790899088906044810161038c565b60408051601f198184030181529181526020820180516001600160e01b03166001600160e01b03199485161790525160e085901b90921682526101ab9291600401610311565b600060405180830381600087803b1580156101c557600080fd5b505af11580156101d9573d6000803e3d6000fd5b505050506040513d6000823e601f3d908101601f19168201604052610201919081019061024e565b5050505050565b835460018501546040805160008152602081019091526001600160a01b03928316926339255d5b921690635a5999e360e11b906101659086908990899060448101610358565b60006020828403121561025f578081fd5b815167ffffffffffffffff80821115610276578283fd5b818401915084601f830112610289578283fd5b81518181111561029557fe5b604051601f8201601f1916810160200183811182821017156102b357fe5b6040528181528382016020018710156102ca578485fd5b6102db8260208301602087016103c2565b9695505050505050565b600081518084526102fd8160208601602086016103c2565b601f01601f19169290920160200192915050565b6001600160a01b0383168152606060208201819052600090610335908301846102e5565b8281036040938401526002815261060f60f31b6020820152919091019392505050565b6001600160a01b0385811682528481166020830152831660408201526080606082018190526000906102db908301846102e5565b6001600160a01b03858116825284166020820152600b83900b60408201526080606082018190526000906102db908301846102e5565b60005b838110156103dd5781810151838201526020016103c5565b838111156103ec576000848401525b5050505056fea2646970667358221220877eaf46cb37c8a39dde1b9835ae67ae39c152b23a0fb5ff994b0f5d780dd78b64736f6c63430007040033",
  "linkReferences": {},
  "deployedLinkReferences": {}
}