{
  "contractName": "Ownable",
  "abi": [
    {
      "inputs": [
        {
          "internalType": "address",
          "name": "owner_",
          "type": "address"
        }
      ],
      "stateMutability": "nonpayable",
      "type": "constructor"
    },
    {
      "anonymous": false,
      "inputs": [
        {
          "indexed": true,
          "internalType": "address",
          "name": "previousOwner",
          "type": "address"
        },
        {
          "indexed": true,
          "internalType": "address",
          "name": "newOwner",
          "type": "address"
        }
      ],
      "name": "OwnershipTransferred",
      "type": "event"
    },
    {
      "inputs": [],
      "name": "owner",
      "outputs": [
        {
          "internalType": "address",
          "name": "",
          "type": "address"
        }
      ],
      "stateMutability": "view",
      "type": "function"
    },
    {
      "inputs": [
        {
          "internalType": "address",
          "name": "nextOwner_",
          "type": "address"
        }
      ],
      "name": "transferOwnership",
      "outputs": [],
      "stateMutability": "nonpayable",
      "type": "function"
    },
    {
      "inputs": [],
      "name": "cancelOwnershipTransfer",
      "outputs": [],
      "stateMutability": "nonpayable",
      "type": "function"
    },
    {
      "inputs": [],
      "name": "acceptOwnership",
      "outputs": [],
      "stateMutability": "nonpayable",
      "type": "function"
    },
    {
      "inputs": [],
      "name": "renounceOwnership",
      "outputs": [],
      "stateMutability": "nonpayable",
      "type": "function"
    },
    {
      "inputs": [],
      "name": "isOwner",
      "outputs": [
        {
          "internalType": "bool",
          "name": "",
          "type": "bool"
        }
      ],
      "stateMutability": "view",
      "type": "function"
    },
    {
      "inputs": [],
      "name": "isNextOwner",
      "outputs": [
        {
          "internalType": "bool",
          "name": "",
          "type": "bool"
        }
      ],
      "stateMutability": "view",
      "type": "function"
    }
  ],
  "bytecode": "0x608060405234801561001057600080fd5b506040516108143803806108148339818101604052602081101561003357600080fd5b8101908080519060200190929190505050806000806101000a81548173ffffffffffffffffffffffffffffffffffffffff021916908373ffffffffffffffffffffffffffffffffffffffff16021790555060008054906101000a900473ffffffffffffffffffffffffffffffffffffffff1673ffffffffffffffffffffffffffffffffffffffff16600073ffffffffffffffffffffffffffffffffffffffff167f8be0079c531659141344cd1fd0a4f28419497f9722a3daafe3b4186f6b6457e060405160405180910390a3506107058061010f6000396000f3fe608060405234801561001057600080fd5b506004361061007d5760003560e01c80638da5cb5b1161005b5780638da5cb5b146100a05780638f32d59b146100d4578063ed459df2146100f4578063f2fde38b146101145761007d565b806323452b9c14610082578063715018a61461008c57806379ba509714610096575b600080fd5b61008a610158565b005b6100946101f9565b005b61009e610331565b005b6100a861046f565b604051808273ffffffffffffffffffffffffffffffffffffffff16815260200191505060405180910390f35b6100dc610493565b60405180821515815260200191505060405180910390f35b6100fc6104ea565b60405180821515815260200191505060405180910390f35b6101566004803603602081101561012a57600080fd5b81019080803573ffffffffffffffffffffffffffffffffffffffff169060200190929190505050610542565b005b610160610493565b6101d2576040517f08c379a00000000000000000000000000000000000000000000000000000000081526004018080602001828103825260188152602001807f63616c6c6572206973206e6f7420746865206f776e65722e000000000000000081525060200191505060405180910390fd5b600160006101000a81549073ffffffffffffffffffffffffffffffffffffffff0219169055565b610201610493565b610273576040517f08c379a00000000000000000000000000000000000000000000000000000000081526004018080602001828103825260188152602001807f63616c6c6572206973206e6f7420746865206f776e65722e000000000000000081525060200191505060405180910390fd5b60008060006101000a81548173ffffffffffffffffffffffffffffffffffffffff021916908373ffffffffffffffffffffffffffffffffffffffff160217905550600073ffffffffffffffffffffffffffffffffffffffff1660008054906101000a900473ffffffffffffffffffffffffffffffffffffffff1673ffffffffffffffffffffffffffffffffffffffff167f8be0079c531659141344cd1fd0a4f28419497f9722a3daafe3b4186f6b6457e060405160405180910390a3565b6103396104ea565b61038e576040517f08c379a000000000000000000000000000000000000000000000000000000000815260040180806020018281038252602c8152602001806106a4602c913960400191505060405180910390fd5b600160006101000a81549073ffffffffffffffffffffffffffffffffffffffff0219169055336000806101000a81548173ffffffffffffffffffffffffffffffffffffffff021916908373ffffffffffffffffffffffffffffffffffffffff1602179055503373ffffffffffffffffffffffffffffffffffffffff1660008054906101000a900473ffffffffffffffffffffffffffffffffffffffff1673ffffffffffffffffffffffffffffffffffffffff167f8be0079c531659141344cd1fd0a4f28419497f9722a3daafe3b4186f6b6457e060405160405180910390a3565b60008054906101000a900473ffffffffffffffffffffffffffffffffffffffff1681565b60008060009054906101000a900473ffffffffffffffffffffffffffffffffffffffff1673ffffffffffffffffffffffffffffffffffffffff163373ffffffffffffffffffffffffffffffffffffffff1614905090565b6000600160009054906101000a900473ffffffffffffffffffffffffffffffffffffffff1673ffffffffffffffffffffffffffffffffffffffff163373ffffffffffffffffffffffffffffffffffffffff1614905090565b61054a610493565b6105bc576040517f08c379a00000000000000000000000000000000000000000000000000000000081526004018080602001828103825260188152602001807f63616c6c6572206973206e6f7420746865206f776e65722e000000000000000081525060200191505060405180910390fd5b600073ffffffffffffffffffffffffffffffffffffffff168173ffffffffffffffffffffffffffffffffffffffff16141561065f576040517f08c379a000000000000000000000000000000000000000000000000000000000815260040180806020018281038252601f8152602001807f4e657874206f776e657220697320746865207a65726f20616464726573732e0081525060200191505060405180910390fd5b80600160006101000a81548173ffffffffffffffffffffffffffffffffffffffff021916908373ffffffffffffffffffffffffffffffffffffffff1602179055505056fe63757272656e74206f776e6572206d757374207365742063616c6c6572206173206e657874206f776e65722ea2646970667358221220d57b35fea0cd30a1df89ecafe0370a7715e0caa2226d3635b6299fe577c9b09a64736f6c63430007060033",
  "immutableReferences": {},
  "source": "// SPDX-License-Identifier: GPL-3.0-or-later\n// pragma solidity 0.8.11;\npragma solidity ^0.7.6;\n\ncontract Ownable {\n    address public owner;\n    address private nextOwner;\n\n    event OwnershipTransferred(\n        address indexed previousOwner,\n        address indexed newOwner\n    );\n\n    // modifiers\n\n    modifier onlyOwner() {\n        require(isOwner(), \"caller is not the owner.\");\n        _;\n    }\n\n    modifier onlyNextOwner() {\n        require(isNextOwner(), \"current owner must set caller as next owner.\");\n        _;\n    }\n\n    /**\n     * @dev Initialize contract by setting transaction submitter as initial owner.\n     */\n    constructor(address owner_) {\n        owner = owner_;\n        emit OwnershipTransferred(address(0), owner);\n    }\n\n    /**\n     * @dev Initiate ownership transfer by setting nextOwner.\n     */\n    function transferOwnership(address nextOwner_) external onlyOwner {\n        require(nextOwner_ != address(0), \"Next owner is the zero address.\");\n\n        nextOwner = nextOwner_;\n    }\n\n    /**\n     * @dev Cancel ownership transfer by deleting nextOwner.\n     */\n    function cancelOwnershipTransfer() external onlyOwner {\n        delete nextOwner;\n    }\n\n    /**\n     * @dev Accepts ownership transfer by setting owner.\n     */\n    function acceptOwnership() external onlyNextOwner {\n        delete nextOwner;\n\n        owner = msg.sender;\n\n        emit OwnershipTransferred(owner, msg.sender);\n    }\n\n    /**\n     * @dev Renounce ownership by setting owner to zero address.\n     */\n    function renounceOwnership() external onlyOwner {\n        owner = address(0);\n\n        emit OwnershipTransferred(owner, address(0));\n    }\n\n    /**\n     * @dev Returns true if the caller is the current owner.\n     */\n    function isOwner() public view returns (bool) {\n        return msg.sender == owner;\n    }\n\n    /**\n     * @dev Returns true if the caller is the next owner.\n     */\n    function isNextOwner() public view returns (bool) {\n        return msg.sender == nextOwner;\n    }\n}",
  "sourcePath": "/Users/rahulnakre/Documents/SparkFund/Truffle/contracts/lib/Ownable.sol",
  "compiler": {
    "name": "solc",
    "version": "0.7.6+commit.7338295f.Emscripten.clang"
  },
  "schemaVersion": "3.4.4",
  "updatedAt": "2022-02-05T00:35:00.089Z",
  "devdoc": {
    "kind": "dev",
    "methods": {
      "acceptOwnership()": {
        "details": "Accepts ownership transfer by setting owner."
      },
      "cancelOwnershipTransfer()": {
        "details": "Cancel ownership transfer by deleting nextOwner."
      },
      "constructor": {
        "details": "Initialize contract by setting transaction submitter as initial owner."
      },
      "isNextOwner()": {
        "details": "Returns true if the caller is the next owner."
      },
      "isOwner()": {
        "details": "Returns true if the caller is the current owner."
      },
      "renounceOwnership()": {
        "details": "Renounce ownership by setting owner to zero address."
      },
      "transferOwnership(address)": {
        "details": "Initiate ownership transfer by setting nextOwner."
      }
    },
    "version": 1
  },
  "userdoc": {
    "kind": "user",
    "methods": {},
    "version": 1
  }
}