{
  "_format": "hh-sol-artifact-1",
  "contractName": "Governable",
  "sourceName": "contracts/lib/Governable.sol",
  "abi": [
    {
      "inputs": [
        {
          "internalType": "address",
          "name": "owner_",
          "type": "address"
        }
      ],
      "stateMutability": "nonpayable",
      "type": "constructor"
    },
    {
      "anonymous": false,
      "inputs": [
        {
          "indexed": true,
          "internalType": "address",
          "name": "previousOwner",
          "type": "address"
        },
        {
          "indexed": true,
          "internalType": "address",
          "name": "newOwner",
          "type": "address"
        }
      ],
      "name": "OwnershipTransferred",
      "type": "event"
    },
    {
      "inputs": [],
      "name": "acceptOwnership",
      "outputs": [],
      "stateMutability": "nonpayable",
      "type": "function"
    },
    {
      "inputs": [],
      "name": "cancelOwnershipTransfer",
      "outputs": [],
      "stateMutability": "nonpayable",
      "type": "function"
    },
    {
      "inputs": [
        {
          "internalType": "address",
          "name": "governor_",
          "type": "address"
        }
      ],
      "name": "changeGovernor",
      "outputs": [],
      "stateMutability": "nonpayable",
      "type": "function"
    },
    {
      "inputs": [],
      "name": "governor",
      "outputs": [
        {
          "internalType": "address",
          "name": "",
          "type": "address"
        }
      ],
      "stateMutability": "view",
      "type": "function"
    },
    {
      "inputs": [],
      "name": "isGovernor",
      "outputs": [
        {
          "internalType": "bool",
          "name": "",
          "type": "bool"
        }
      ],
      "stateMutability": "view",
      "type": "function"
    },
    {
      "inputs": [],
      "name": "isNextOwner",
      "outputs": [
        {
          "internalType": "bool",
          "name": "",
          "type": "bool"
        }
      ],
      "stateMutability": "view",
      "type": "function"
    },
    {
      "inputs": [],
      "name": "isOwner",
      "outputs": [
        {
          "internalType": "bool",
          "name": "",
          "type": "bool"
        }
      ],
      "stateMutability": "view",
      "type": "function"
    },
    {
      "inputs": [],
      "name": "owner",
      "outputs": [
        {
          "internalType": "address",
          "name": "",
          "type": "address"
        }
      ],
      "stateMutability": "view",
      "type": "function"
    },
    {
      "inputs": [],
      "name": "renounceOwnership",
      "outputs": [],
      "stateMutability": "nonpayable",
      "type": "function"
    },
    {
      "inputs": [
        {
          "internalType": "address",
          "name": "nextOwner_",
          "type": "address"
        }
      ],
      "name": "transferOwnership",
      "outputs": [],
      "stateMutability": "nonpayable",
      "type": "function"
    }
  ],
  "bytecode": "0x608060405234801561001057600080fd5b5060405161058f38038061058f8339818101604052602081101561003357600080fd5b5051600080546001600160a01b0319166001600160a01b0380841691909117808355604051849391909216917f8be0079c531659141344cd1fd0a4f28419497f9722a3daafe3b4186f6b6457e0908290a350506104fa806100956000396000f3fe608060405234801561001057600080fd5b506004361061009e5760003560e01c80638f32d59b116100665780638f32d59b146100e9578063c7af335214610105578063e4c0aaf41461010d578063ed459df214610133578063f2fde38b1461013b5761009e565b80630c340a24146100a357806323452b9c146100c7578063715018a6146100d157806379ba5097146100d95780638da5cb5b146100e1575b600080fd5b6100ab610161565b604080516001600160a01b039092168252519081900360200190f35b6100cf610170565b005b6100cf6101d6565b6100cf610266565b6100ab6102fc565b6100f161030b565b604080519115158252519081900360200190f35b6100f161031c565b6100cf6004803603602081101561012357600080fd5b50356001600160a01b031661032d565b6100f16103b6565b6100cf6004803603602081101561015157600080fd5b50356001600160a01b03166103c7565b6002546001600160a01b031681565b61017861030b565b6101c4576040805162461bcd60e51b815260206004820152601860248201527731b0b63632b91034b9903737ba103a34329037bbb732b91760411b604482015290519081900360640190fd5b600180546001600160a01b0319169055565b6101de61030b565b61022a576040805162461bcd60e51b815260206004820152601860248201527731b0b63632b91034b9903737ba103a34329037bbb732b91760411b604482015290519081900360640190fd5b600080546001600160a01b031916815560405181907f8be0079c531659141344cd1fd0a4f28419497f9722a3daafe3b4186f6b6457e0908290a3565b61026e6103b6565b6102a95760405162461bcd60e51b815260040180806020018281038252602c815260200180610499602c913960400191505060405180910390fd5b600180546001600160a01b03199081169091556000805433921682178082556040516001600160a01b03909116917f8be0079c531659141344cd1fd0a4f28419497f9722a3daafe3b4186f6b6457e091a3565b6000546001600160a01b031681565b6000546001600160a01b0316331490565b6002546001600160a01b0316331490565b61033561030b565b80610343575061034361031c565b610394576040805162461bcd60e51b815260206004820152601860248201527f63616c6c6572206973206e6f7420676f7665726e616e63650000000000000000604482015290519081900360640190fd5b600280546001600160a01b0319166001600160a01b0392909216919091179055565b6001546001600160a01b0316331490565b6103cf61030b565b61041b576040805162461bcd60e51b815260206004820152601860248201527731b0b63632b91034b9903737ba103a34329037bbb732b91760411b604482015290519081900360640190fd5b6001600160a01b038116610476576040805162461bcd60e51b815260206004820152601f60248201527f4e657874206f776e657220697320746865207a65726f20616464726573732e00604482015290519081900360640190fd5b600180546001600160a01b0319166001600160a01b039290921691909117905556fe63757272656e74206f776e6572206d757374207365742063616c6c6572206173206e657874206f776e65722ea2646970667358221220682a04ff3e75aef817e4017d6ad06adb79b869137f24ea3352a23559eb4d63b864736f6c63430007040033",
  "linkReferences": {},
  "deployedLinkReferences": {}
}