{
  "_format": "hh-sol-artifact-1",
  "contractName": "Crowdfund",
  "sourceName": "contracts/funding/Crowdfund.sol",
  "abi": [
    {
      "inputs": [
        {
          "internalType": "string",
          "name": "name",
          "type": "string"
        },
        {
          "internalType": "string",
          "name": "symbol",
          "type": "string"
        },
        {
          "internalType": "address payable",
          "name": "operator_",
          "type": "address"
        },
        {
          "internalType": "address payable",
          "name": "fundingRecipient_",
          "type": "address"
        },
        {
          "internalType": "contract ISuperfluid",
          "name": "sfHost_",
          "type": "address"
        },
        {
          "internalType": "address",
          "name": "fDaiToken_",
          "type": "address"
        },
        {
          "internalType": "address",
          "name": "fDaiXToken_",
          "type": "address"
        },
        {
          "internalType": "uint256",
          "name": "fundingCap_",
          "type": "uint256"
        },
        {
          "internalType": "uint256",
          "name": "fundingPercent_",
          "type": "uint256"
        },
        {
          "internalType": "uint256",
          "name": "tokenScale_",
          "type": "uint256"
        },
        {
          "internalType": "uint256",
          "name": "fixedPercent_",
          "type": "uint256"
        }
      ],
      "stateMutability": "nonpayable",
      "type": "constructor"
    },
    {
      "anonymous": false,
      "inputs": [
        {
          "indexed": true,
          "internalType": "address",
          "name": "owner",
          "type": "address"
        },
        {
          "indexed": true,
          "internalType": "address",
          "name": "spender",
          "type": "address"
        },
        {
          "indexed": false,
          "internalType": "uint256",
          "name": "value",
          "type": "uint256"
        }
      ],
      "name": "Approval",
      "type": "event"
    },
    {
      "anonymous": false,
      "inputs": [
        {
          "indexed": false,
          "internalType": "address",
          "name": "contributor",
          "type": "address"
        },
        {
          "indexed": false,
          "internalType": "uint256",
          "name": "amount",
          "type": "uint256"
        }
      ],
      "name": "Contribution",
      "type": "event"
    },
    {
      "anonymous": false,
      "inputs": [
        {
          "indexed": false,
          "internalType": "uint256",
          "name": "",
          "type": "uint256"
        }
      ],
      "name": "DaiBalance",
      "type": "event"
    },
    {
      "anonymous": false,
      "inputs": [
        {
          "indexed": false,
          "internalType": "uint256",
          "name": "amountRaised",
          "type": "uint256"
        },
        {
          "indexed": false,
          "internalType": "uint256",
          "name": "creatorAllocation",
          "type": "uint256"
        }
      ],
      "name": "FundingClosed",
      "type": "event"
    },
    {
      "anonymous": false,
      "inputs": [
        {
          "indexed": true,
          "internalType": "address",
          "name": "previousOwner",
          "type": "address"
        },
        {
          "indexed": true,
          "internalType": "address",
          "name": "newOwner",
          "type": "address"
        }
      ],
      "name": "OwnershipTransferred",
      "type": "event"
    },
    {
      "anonymous": false,
      "inputs": [
        {
          "indexed": true,
          "internalType": "address",
          "name": "from",
          "type": "address"
        },
        {
          "indexed": true,
          "internalType": "address",
          "name": "to",
          "type": "address"
        },
        {
          "indexed": false,
          "internalType": "uint256",
          "name": "value",
          "type": "uint256"
        }
      ],
      "name": "Transfer",
      "type": "event"
    },
    {
      "anonymous": false,
      "inputs": [
        {
          "indexed": false,
          "internalType": "address",
          "name": "crowdfund",
          "type": "address"
        }
      ],
      "name": "newCrowdfund",
      "type": "event"
    },
    {
      "inputs": [],
      "name": "acceptOwnership",
      "outputs": [],
      "stateMutability": "nonpayable",
      "type": "function"
    },
    {
      "inputs": [
        {
          "internalType": "address",
          "name": "owner",
          "type": "address"
        },
        {
          "internalType": "address",
          "name": "spender",
          "type": "address"
        }
      ],
      "name": "allowance",
      "outputs": [
        {
          "internalType": "uint256",
          "name": "",
          "type": "uint256"
        }
      ],
      "stateMutability": "view",
      "type": "function"
    },
    {
      "inputs": [
        {
          "internalType": "address",
          "name": "spender",
          "type": "address"
        },
        {
          "internalType": "uint256",
          "name": "amount",
          "type": "uint256"
        }
      ],
      "name": "approve",
      "outputs": [
        {
          "internalType": "bool",
          "name": "",
          "type": "bool"
        }
      ],
      "stateMutability": "nonpayable",
      "type": "function"
    },
    {
      "inputs": [
        {
          "internalType": "address",
          "name": "account",
          "type": "address"
        }
      ],
      "name": "balanceOf",
      "outputs": [
        {
          "internalType": "uint256",
          "name": "",
          "type": "uint256"
        }
      ],
      "stateMutability": "view",
      "type": "function"
    },
    {
      "inputs": [],
      "name": "cancelOwnershipTransfer",
      "outputs": [],
      "stateMutability": "nonpayable",
      "type": "function"
    },
    {
      "inputs": [],
      "name": "cfaV1",
      "outputs": [
        {
          "internalType": "contract ISuperfluid",
          "name": "host",
          "type": "address"
        },
        {
          "internalType": "contract IConstantFlowAgreementV1",
          "name": "cfa",
          "type": "address"
        }
      ],
      "stateMutability": "view",
      "type": "function"
    },
    {
      "inputs": [
        {
          "internalType": "address payable",
          "name": "newFundingRecipient",
          "type": "address"
        }
      ],
      "name": "changeFundingRecipient",
      "outputs": [],
      "stateMutability": "nonpayable",
      "type": "function"
    },
    {
      "inputs": [
        {
          "internalType": "address",
          "name": "governor_",
          "type": "address"
        }
      ],
      "name": "changeGovernor",
      "outputs": [],
      "stateMutability": "nonpayable",
      "type": "function"
    },
    {
      "inputs": [],
      "name": "closeFunding",
      "outputs": [],
      "stateMutability": "nonpayable",
      "type": "function"
    },
    {
      "inputs": [],
      "name": "decimals",
      "outputs": [
        {
          "internalType": "uint8",
          "name": "",
          "type": "uint8"
        }
      ],
      "stateMutability": "view",
      "type": "function"
    },
    {
      "inputs": [
        {
          "internalType": "address",
          "name": "spender",
          "type": "address"
        },
        {
          "internalType": "uint256",
          "name": "subtractedValue",
          "type": "uint256"
        }
      ],
      "name": "decreaseAllowance",
      "outputs": [
        {
          "internalType": "bool",
          "name": "",
          "type": "bool"
        }
      ],
      "stateMutability": "nonpayable",
      "type": "function"
    },
    {
      "inputs": [],
      "name": "fixedPercent",
      "outputs": [
        {
          "internalType": "uint256",
          "name": "",
          "type": "uint256"
        }
      ],
      "stateMutability": "view",
      "type": "function"
    },
    {
      "inputs": [
        {
          "internalType": "uint256",
          "name": "amount",
          "type": "uint256"
        }
      ],
      "name": "fund",
      "outputs": [],
      "stateMutability": "nonpayable",
      "type": "function"
    },
    {
      "inputs": [],
      "name": "fundingCap",
      "outputs": [
        {
          "internalType": "uint256",
          "name": "",
          "type": "uint256"
        }
      ],
      "stateMutability": "view",
      "type": "function"
    },
    {
      "inputs": [],
      "name": "fundingPercent",
      "outputs": [
        {
          "internalType": "uint256",
          "name": "",
          "type": "uint256"
        }
      ],
      "stateMutability": "view",
      "type": "function"
    },
    {
      "inputs": [],
      "name": "fundingRecipient",
      "outputs": [
        {
          "internalType": "address payable",
          "name": "",
          "type": "address"
        }
      ],
      "stateMutability": "view",
      "type": "function"
    },
    {
      "inputs": [],
      "name": "governor",
      "outputs": [
        {
          "internalType": "address",
          "name": "",
          "type": "address"
        }
      ],
      "stateMutability": "view",
      "type": "function"
    },
    {
      "inputs": [
        {
          "internalType": "address",
          "name": "spender",
          "type": "address"
        },
        {
          "internalType": "uint256",
          "name": "addedValue",
          "type": "uint256"
        }
      ],
      "name": "increaseAllowance",
      "outputs": [
        {
          "internalType": "bool",
          "name": "",
          "type": "bool"
        }
      ],
      "stateMutability": "nonpayable",
      "type": "function"
    },
    {
      "inputs": [],
      "name": "isGovernor",
      "outputs": [
        {
          "internalType": "bool",
          "name": "",
          "type": "bool"
        }
      ],
      "stateMutability": "view",
      "type": "function"
    },
    {
      "inputs": [],
      "name": "isNextOwner",
      "outputs": [
        {
          "internalType": "bool",
          "name": "",
          "type": "bool"
        }
      ],
      "stateMutability": "view",
      "type": "function"
    },
    {
      "inputs": [],
      "name": "isOwner",
      "outputs": [
        {
          "internalType": "bool",
          "name": "",
          "type": "bool"
        }
      ],
      "stateMutability": "view",
      "type": "function"
    },
    {
      "inputs": [],
      "name": "name",
      "outputs": [
        {
          "internalType": "string",
          "name": "",
          "type": "string"
        }
      ],
      "stateMutability": "view",
      "type": "function"
    },
    {
      "inputs": [],
      "name": "operator",
      "outputs": [
        {
          "internalType": "address payable",
          "name": "",
          "type": "address"
        }
      ],
      "stateMutability": "view",
      "type": "function"
    },
    {
      "inputs": [],
      "name": "owner",
      "outputs": [
        {
          "internalType": "address",
          "name": "",
          "type": "address"
        }
      ],
      "stateMutability": "view",
      "type": "function"
    },
    {
      "inputs": [],
      "name": "renounceOwnership",
      "outputs": [],
      "stateMutability": "nonpayable",
      "type": "function"
    },
    {
      "inputs": [],
      "name": "status",
      "outputs": [
        {
          "internalType": "enum Crowdfund.Status",
          "name": "",
          "type": "uint8"
        }
      ],
      "stateMutability": "view",
      "type": "function"
    },
    {
      "inputs": [],
      "name": "symbol",
      "outputs": [
        {
          "internalType": "string",
          "name": "",
          "type": "string"
        }
      ],
      "stateMutability": "view",
      "type": "function"
    },
    {
      "inputs": [],
      "name": "tokenScale",
      "outputs": [
        {
          "internalType": "uint256",
          "name": "",
          "type": "uint256"
        }
      ],
      "stateMutability": "view",
      "type": "function"
    },
    {
      "inputs": [],
      "name": "totalSupply",
      "outputs": [
        {
          "internalType": "uint256",
          "name": "",
          "type": "uint256"
        }
      ],
      "stateMutability": "view",
      "type": "function"
    },
    {
      "inputs": [
        {
          "internalType": "address",
          "name": "recipient",
          "type": "address"
        },
        {
          "internalType": "uint256",
          "name": "amount",
          "type": "uint256"
        }
      ],
      "name": "transfer",
      "outputs": [
        {
          "internalType": "bool",
          "name": "",
          "type": "bool"
        }
      ],
      "stateMutability": "nonpayable",
      "type": "function"
    },
    {
      "inputs": [
        {
          "internalType": "address",
          "name": "sender",
          "type": "address"
        },
        {
          "internalType": "address",
          "name": "recipient",
          "type": "address"
        },
        {
          "internalType": "uint256",
          "name": "amount",
          "type": "uint256"
        }
      ],
      "name": "transferFrom",
      "outputs": [
        {
          "internalType": "bool",
          "name": "",
          "type": "bool"
        }
      ],
      "stateMutability": "nonpayable",
      "type": "function"
    },
    {
      "inputs": [
        {
          "internalType": "address",
          "name": "nextOwner_",
          "type": "address"
        }
      ],
      "name": "transferOwnership",
      "outputs": [],
      "stateMutability": "nonpayable",
      "type": "function"
    },
    {
      "inputs": [
        {
          "internalType": "uint256",
          "name": "value",
          "type": "uint256"
        }
      ],
      "name": "valueToTokens",
      "outputs": [
        {
          "internalType": "uint256",
          "name": "tokens",
          "type": "uint256"
        }
      ],
      "stateMutability": "view",
      "type": "function"
    }
  ],
  "bytecode": "0x60806040523480156200001157600080fd5b50604051620020fc380380620020fc83398181016040526101608110156200003857600080fd5b81019080805160405193929190846401000000008211156200005957600080fd5b9083019060208201858111156200006f57600080fd5b82516401000000008111828201881017156200008a57600080fd5b82525081516020918201929091019080838360005b83811015620000b95781810151838201526020016200009f565b50505050905090810190601f168015620000e75780820380516001836020036101000a031916815260200191505b50604052602001805160405193929190846401000000008211156200010b57600080fd5b9083019060208201858111156200012157600080fd5b82516401000000008111828201881017156200013c57600080fd5b82525081516020918201929091019080838360005b838110156200016b57818101518382015260200162000151565b50505050905090810190601f168015620001995780820380516001836020036101000a031916815260200191505b5060408181526020830151908301516060840151608085015160a086015160c087015160e088015161010089015161012090990151600080546001600160a01b0319166001600160a01b03808b1691909117808355999d50979b509599949893979296919590938e938e938e93849392909116917f8be0079c531659141344cd1fd0a4f28419497f9722a3daafe3b4186f6b6457e0908290a3505081516200024990600690602085019062000404565b5080516200025f90600790602084019062000404565b50506008805460ff19166012908117909155600b80546001600160a01b03808e166001600160a01b031992831617909255600c80548d8416908316179055600d889055600e879055600f8690556010859055601180548b841661010002610100600160a81b031990911617905582549189169116179055506040805130815290517f824f53696f8638dcae0d1b6d275e7931ac9146f39d320ba087747890d27f2bcd9181900360200190a16040518060400160405280886001600160a01b03168152602001886001600160a01b031663b6d200de7fa9214cc96615e0085d3bb077758db69497dc2dce3b2b1e97bc93c3d18d83efd36040518263ffffffff1660e01b81526004018082815260200191505060206040518083038186803b1580156200038957600080fd5b505afa1580156200039e573d6000803e3d6000fd5b505050506040513d6020811015620003b557600080fd5b50516001600160a01b039081169091528151600980546001600160a01b0319908116928416929092179055602090920151600a8054909316911617905550620004b09950505050505050505050565b828054600181600116156101000203166002900490600052602060002090601f0160209004810192826200043c576000855562000487565b82601f106200045757805160ff191683800117855562000487565b8280016001018555821562000487579182015b82811115620004875782518255916020019190600101906200046a565b506200049592915062000499565b5090565b5b808211156200049557600081556001016200049a565b611c3c80620004c06000396000f3fe608060405234801561001057600080fd5b50600436106101fb5760003560e01c806381afa6fb1161011a578063c7af3352116100ad578063dd62ed3e1161007c578063dd62ed3e14610523578063e3b2594f14610551578063e4c0aaf414610559578063ed459df21461057f578063f2fde38b14610587576101fb565b8063c7af3352146104a1578063ca1d209d146104a9578063d3112b2e146104c6578063da046b67146104fd576101fb565b80639744b8dc116100e95780639744b8dc14610424578063a457c2d714610441578063a9059cbb1461046d578063ad66d37f14610499576101fb565b806381afa6fb146104045780638da5cb5b1461040c5780638f32d59b1461041457806395d89b411461041c576101fb565b8063313ce56711610192578063570ca73511610161578063570ca735146103c657806370a08231146103ce578063715018a6146103f457806379ba5097146103fc576101fb565b8063313ce5671461036c57806331a3a5061461038a578063342c02b114610392578063395093511461039a576101fb565b80631bb534ba116101ce5780631bb534ba146102fb578063200d2ed21461030357806323452b9c1461032c57806323b872dd14610336576101fb565b806306fdde0314610200578063095ea7b31461027d5780630c340a24146102bd57806318160ddd146102e1575b600080fd5b6102086105ad565b6040805160208082528351818301528351919283929083019185019080838360005b8381101561024257818101518382015260200161022a565b50505050905090810190601f16801561026f5780820380516001836020036101000a031916815260200191505b509250505060405180910390f35b6102a96004803603604081101561029357600080fd5b506001600160a01b038135169060200135610643565b604080519115158252519081900360200190f35b6102c5610660565b604080516001600160a01b039092168252519081900360200190f35b6102e961066f565b60408051918252519081900360200190f35b6102c5610675565b61030b610684565b6040518082600181111561031b57fe5b815260200191505060405180910390f35b61033461068d565b005b6102a96004803603606081101561034c57600080fd5b506001600160a01b038135811691602081013590911690604001356106f3565b61037461077a565b6040805160ff9092168252519081900360200190f35b610334610783565b6102e961088b565b6102a9600480360360408110156103b057600080fd5b506001600160a01b038135169060200135610891565b6102c56108df565b6102e9600480360360208110156103e457600080fd5b50356001600160a01b03166108ee565b610334610909565b610334610999565b6102e9610a2f565b6102c5610a35565b6102a9610a44565b610208610a55565b6102e96004803603602081101561043a57600080fd5b5035610ab6565b6102a96004803603604081101561045757600080fd5b506001600160a01b038135169060200135610aca565b6102a96004803603604081101561048357600080fd5b506001600160a01b038135169060200135610b32565b6102e9610b46565b6102a9610b4c565b610334600480360360208110156104bf57600080fd5b5035610b5d565b6104ce610b66565b60405180836001600160a01b03168152602001826001600160a01b031681526020019250505060405180910390f35b6103346004803603602081101561051357600080fd5b50356001600160a01b0316610b7c565b6102e96004803603604081101561053957600080fd5b506001600160a01b0381358116916020013516610bb5565b6102e9610be0565b6103346004803603602081101561056f57600080fd5b50356001600160a01b0316610be6565b6102a9610c6f565b6103346004803603602081101561059d57600080fd5b50356001600160a01b0316610c80565b60068054604080516020601f60026000196101006001881615020190951694909404938401819004810282018101909252828152606093909290918301828280156106395780601f1061060e57610100808354040283529160200191610639565b820191906000526020600020905b81548152906001019060200180831161061c57829003601f168201915b5050505050905090565b6000610657610650610d51565b8484610d55565b50600192915050565b6002546001600160a01b031681565b60055490565b600c546001600160a01b031681565b60115460ff1681565b610695610a44565b6106e1576040805162461bcd60e51b815260206004820152601860248201527731b0b63632b91034b9903737ba103a34329037bbb732b91760411b604482015290519081900360640190fd5b600180546001600160a01b0319169055565b6000610700848484610e41565b6107708461070c610d51565b61076b85604051806060016040528060288152602001611b35602891396001600160a01b038a1660009081526004602052604081209061074a610d51565b6001600160a01b031681526020810191909152604001600020549190610f9e565b610d55565b5060019392505050565b60085460ff1690565b600b546001600160a01b0316331461079a57600080fd5b600060115460ff1660018111156107ad57fe5b146107ff576040805162461bcd60e51b815260206004820152601f60248201527f43726f776466756e643a2046756e64696e67206d757374206265206f70656e00604482015290519081900360640190fd5b6011805460ff19166001179055600e54600090606481900361081f61066f565b8161082657fe5b600c54919004919091029150610845906001600160a01b031682611035565b604080514781526020810183905281517f352ce94da8e3109dc06c05ed84e8a0aaf9ce2c4329dfd10ad1190cf620048972929181900390910190a1610888611127565b50565b600f5481565b600061065761089e610d51565b8461076b85600460006108af610d51565b6001600160a01b03908116825260208083019390935260409182016000908120918c1681529252902054906112d7565b600b546001600160a01b031681565b6001600160a01b031660009081526003602052604090205490565b610911610a44565b61095d576040805162461bcd60e51b815260206004820152601860248201527731b0b63632b91034b9903737ba103a34329037bbb732b91760411b604482015290519081900360640190fd5b600080546001600160a01b031916815560405181907f8be0079c531659141344cd1fd0a4f28419497f9722a3daafe3b4186f6b6457e0908290a3565b6109a1610c6f565b6109dc5760405162461bcd60e51b815260040180806020018281038252602c815260200180611ac1602c913960400191505060405180910390fd5b600180546001600160a01b03199081169091556000805433921682178082556040516001600160a01b03909116917f8be0079c531659141344cd1fd0a4f28419497f9722a3daafe3b4186f6b6457e091a3565b60105481565b6000546001600160a01b031681565b6000546001600160a01b0316331490565b60078054604080516020601f60026000196101006001881615020190951694909404938401819004810282018101909252828152606093909290918301828280156106395780601f1061060e57610100808354040283529160200191610639565b6000600f548281610ac357fe5b0492915050565b6000610657610ad7610d51565b8461076b85604051806060016040528060258152602001611be26025913960046000610b01610d51565b6001600160a01b03908116825260208083019390935260409182016000908120918d16815292529020549190610f9e565b6000610657610b3f610d51565b8484610e41565b600e5481565b6002546001600160a01b0316331490565b61088881611338565b600954600a546001600160a01b03918216911682565b600b546001600160a01b03163314610b9357600080fd5b600c80546001600160a01b0319166001600160a01b0392909216919091179055565b6001600160a01b03918216600090815260046020908152604080832093909416825291909152205490565b600d5481565b610bee610a44565b80610bfc5750610bfc610b4c565b610c4d576040805162461bcd60e51b815260206004820152601860248201527f63616c6c6572206973206e6f7420676f7665726e616e63650000000000000000604482015290519081900360640190fd5b600280546001600160a01b0319166001600160a01b0392909216919091179055565b6001546001600160a01b0316331490565b610c88610a44565b610cd4576040805162461bcd60e51b815260206004820152601860248201527731b0b63632b91034b9903737ba103a34329037bbb732b91760411b604482015290519081900360640190fd5b6001600160a01b038116610d2f576040805162461bcd60e51b815260206004820152601f60248201527f4e657874206f776e657220697320746865207a65726f20616464726573732e00604482015290519081900360640190fd5b600180546001600160a01b0319166001600160a01b0392909216919091179055565b3390565b6001600160a01b038316610d9a5760405162461bcd60e51b8152600401808060200182810382526024815260200180611b826024913960400191505060405180910390fd5b6001600160a01b038216610ddf5760405162461bcd60e51b8152600401808060200182810382526022815260200180611aed6022913960400191505060405180910390fd5b6001600160a01b03808416600081815260046020908152604080832094871680845294825291829020859055815185815291517f8c5be1e5ebec7d5bd14f71427d1e84f3dd0314c0f7b2291e5b200ac8c7c3b9259281900390910190a3505050565b6001600160a01b038316610e865760405162461bcd60e51b8152600401808060200182810382526025815260200180611b5d6025913960400191505060405180910390fd5b6001600160a01b038216610ecb5760405162461bcd60e51b8152600401808060200182810382526023815260200180611a9e6023913960400191505060405180910390fd5b610ed68383836112d2565b610f1381604051806060016040528060268152602001611b0f602691396001600160a01b0386166000908152600360205260409020549190610f9e565b6001600160a01b038085166000908152600360205260408082209390935590841681522054610f4290826112d7565b6001600160a01b0380841660008181526003602090815260409182902094909455805185815290519193928716927fddf252ad1be2c89b69c2b068fc378daa952ba7f163c4a11628f55a4df523b3ef92918290030190a3505050565b6000818484111561102d5760405162461bcd60e51b81526004018080602001828103825283818151815260200191508051906020019080838360005b83811015610ff2578181015183820152602001610fda565b50505050905090810190601f16801561101f5780820380516001836020036101000a031916815260200191505b509250505060405180910390fd5b505050900390565b6001600160a01b038216611090576040805162461bcd60e51b815260206004820152601f60248201527f45524332303a206d696e7420746f20746865207a65726f206164647265737300604482015290519081900360640190fd5b61109c600083836112d2565b6005546110a990826112d7565b6005556001600160a01b0382166000908152600360205260409020546110cf90826112d7565b6001600160a01b03831660008181526003602090815260408083209490945583518581529351929391927fddf252ad1be2c89b69c2b068fc378daa952ba7f163c4a11628f55a4df523b3ef9281900390910190a35050565b601154604080516370a0823160e01b8152306004820152905160009261010090046001600160a01b0316916370a08231916024808301926020929190829003018186803b15801561117757600080fd5b505afa15801561118b573d6000803e3d6000fd5b505050506040513d60208110156111a157600080fd5b5051601154600c546040805163095ea7b360e01b81526001600160a01b0392831660048201526014606486040260248201819052915194955090938486039361010090049092169163095ea7b3916044808201926020929091908290030181600087803b15801561121157600080fd5b505af1158015611225573d6000803e3d6000fd5b505050506040513d602081101561123b57600080fd5b5050601154600c546040805163a9059cbb60e01b81526001600160a01b0392831660048201526024810186905290516101009093049091169163a9059cbb916044808201926020929091908290030181600087803b15801561129c57600080fd5b505af11580156112b0573d6000803e3d6000fd5b505050506040513d60208110156112c657600080fd5b506112d2905081611649565b505050565b600082820183811015611331576040805162461bcd60e51b815260206004820152601b60248201527f536166654d6174683a206164646974696f6e206f766572666c6f770000000000604482015290519081900360640190fd5b9392505050565b600060115460ff16600181111561134b57fe5b1461139d576040805162461bcd60e51b815260206004820152601f60248201527f43726f776466756e643a2046756e64696e67206d757374206265206f70656e00604482015290519081900360640190fd5b600d548111156113de5760405162461bcd60e51b815260040180806020018281038252603c815260200180611ba6603c913960400191505060405180910390fd5b604080518082018252601b81527f53656e6465722062616c616e636520697320257320746f6b656e73000000000060208083019190915260115483516370a0823160e01b81523360048201819052945161149594936101009093046001600160a01b0316926370a082319260248082019391829003018186803b15801561146457600080fd5b505afa158015611478573d6000803e3d6000fd5b505050506040513d602081101561148e57600080fd5b5051611762565b81601160019054906101000a90046001600160a01b03166001600160a01b03166370a08231836040518263ffffffff1660e01b815260040180826001600160a01b0316815260200191505060206040518083038186803b1580156114f857600080fd5b505afa15801561150c573d6000803e3d6000fd5b505050506040513d602081101561152257600080fd5b50511015611560576040805162461bcd60e51b815260206004808301919091526024820152631d195cdd60e21b604482015290519081900360640190fd5b601154604080516323b872dd60e01b81526001600160a01b038481166004830152306024830152604482018690529151610100909304909116916323b872dd916064808201926020929091908290030181600087803b1580156115c257600080fd5b505af11580156115d6573d6000803e3d6000fd5b505050506040513d60208110156115ec57600080fd5b506116019050816115fc84610ab6565b611035565b604080516001600160a01b03831681526020810184905281517f4d154d4aae216bed6d0926db77c00df2b57c6b5ba4eee05775de20facede3a7b929181900390910190a15050565b6011546012546040805163095ea7b360e01b81526001600160a01b0392831660048201526024810185905290516101009093049091169163095ea7b3916044808201926020929091908290030181600087803b1580156116a857600080fd5b505af11580156116bc573d6000803e3d6000fd5b505050506040513d60208110156116d257600080fd5b5050601254604080516345977d0360e01b81526004810184905290516001600160a01b039092169182916345977d0391602480830192600092919082900301818387803b15801561172257600080fd5b505af1158015611736573d6000803e3d6000fd5b50505050600061174583611814565b600c549091506112d2906009906001600160a01b03168484611823565b61181082826040516024018080602001838152602001828103825284818151815260200191508051906020019080838360005b838110156117ad578181015183820152602001611795565b50505050905090810190601f1680156117da5780820380516001836020036101000a031916815260200191505b5060408051601f198184030181529190526020810180516001600160e01b03166309710a9d60e41b179052935061190c92505050565b5050565b600062278d00600c8304610ac3565b835460018501546040805160008152602081019091526001600160a01b03928316926339255d5b92169063317e182f60e11b906118699087908990889060448101611a37565b60408051601f198184030181529181526020820180516001600160e01b03166001600160e01b03199485161790525160e085901b90921682526118af92916004016119f0565b600060405180830381600087803b1580156118c957600080fd5b505af11580156118dd573d6000803e3d6000fd5b505050506040513d6000823e601f3d908101601f19168201604052611905919081019061192d565b5050505050565b80516a636f6e736f6c652e6c6f67602083016000808483855afa5050505050565b60006020828403121561193e578081fd5b815167ffffffffffffffff80821115611955578283fd5b818401915084601f830112611968578283fd5b81518181111561197457fe5b604051601f8201601f19168101602001838111828210171561199257fe5b6040528181528382016020018710156119a9578485fd5b6119ba826020830160208701611a6d565b9695505050505050565b600081518084526119dc816020860160208601611a6d565b601f01601f19169290920160200192915050565b6001600160a01b0383168152606060208201819052600090611a14908301846119c4565b8281036040938401526002815261060f60f31b6020820152919091019392505050565b6001600160a01b03858116825284166020820152600b83900b60408201526080606082018190526000906119ba908301846119c4565b60005b83811015611a88578181015183820152602001611a70565b83811115611a97576000848401525b5050505056fe45524332303a207472616e7366657220746f20746865207a65726f206164647265737363757272656e74206f776e6572206d757374207365742063616c6c6572206173206e657874206f776e65722e45524332303a20617070726f766520746f20746865207a65726f206164647265737345524332303a207472616e7366657220616d6f756e7420657863656564732062616c616e636545524332303a207472616e7366657220616d6f756e74206578636565647320616c6c6f77616e636545524332303a207472616e736665722066726f6d20746865207a65726f206164647265737345524332303a20617070726f76652066726f6d20746865207a65726f206164647265737354686973207472616e73616374696f6e2077696c6c20676f206f766572207468652066756e64696e6720636170206f66207468652070726f6a65637445524332303a2064656372656173656420616c6c6f77616e63652062656c6f77207a65726fa2646970667358221220e18d55563a9e504f2ccdb29e89cac8a14b2064a4d4dfdceaada5c5ac9c29be8464736f6c63430007040033",
  "linkReferences": {},
  "deployedLinkReferences": {}
}